     2.00           CLOCK DATA                              RINEX VERSION / TYPE
CCRNXC V5.3         AIUB                20-JAN-22 04:21     PGM / RUN BY / DATE 
Center for Orbit Determination in Europe (CODE)             COMMENT             
Final GNSS clock information for year-day 2022-014          COMMENT             
Clock information consistent with phase and P1/P2 code data COMMENT             
Satellite/receiver clock values at intervals of 5/300 sec   COMMENT             
High-rate (5 sec) clock interpolation based on phase data   COMMENT             
Product reference: DOI 10.7892/boris.75876.4                COMMENT             
   GPS                                                      TIME SYSTEM ID      
    18                                                      LEAP SECONDS        
G CLKEST V5.3       IGS14                                   SYS / PCVS APPLIED  
R CLKEST V5.3       IGS14                                   SYS / PCVS APPLIED  
G CLKEST V5.3       CODE.BIA @ ftp.aiub.unibe.ch/CODE/      SYS / DCBS APPLIED  
R CLKEST V5.3       CODE.BIA @ ftp.aiub.unibe.ch/CODE/      SYS / DCBS APPLIED  
     2    AR    AS                                          # / TYPES OF DATA   
COD  Center for Orbit Determination in Europe               ANALYSIS CENTER     
     1                                                      # OF CLK REF        
GOLD 40405S031                           0.000000000000E+00 ANALYSIS CLK REF    
   277    IGb14                                             # OF SOLN STA / TRF 
GOLD 40405S031           -2353614539 -4641385242  3676976363SOLN STA NAME / NUM 
ABMF 97103M001            2919785804 -5383744936  1774604891SOLN STA NAME / NUM 
ABPO 33302M001            4097216519  4429119239 -2065771149SOLN STA NAME / NUM 
AIRA 21742S001           -3530185799  4118797248  3344036782SOLN STA NAME / NUM 
AJAC 10077M005            4696989184   723994792  4239678738SOLN STA NAME / NUM 
ALBH 40129M003           -2341333125 -3539049537  4745791247SOLN STA NAME / NUM 
ALGO 40104M002             918129112 -4346071322  4561977933SOLN STA NAME / NUM 
ALIC 50137M001           -4052052821  4212835973 -2545104476SOLN STA NAME / NUM 
AMU2 66040M002                 63409     -206326 -6359569259SOLN STA NAME / NUM 
ANTC 41713S001            1608538530 -4816370563 -3847798257SOLN STA NAME / NUM 
AREG 42202M008            1942816442 -5804077162 -1796884322SOLN STA NAME / NUM 
AREQ 42202M005            1942826302 -5804070358 -1796894085SOLN STA NAME / NUM 
ASCG 30602M004            6121151565 -1563978964  -872615281SOLN STA NAME / NUM 
AUCK 50209M001           -5105681590   461563994 -3782180935SOLN STA NAME / NUM 
AXPV 10057M001            4614666746   430786723  4367411663SOLN STA NAME / NUM 
BADG 12338M002            -838282122  3865777320  4987624564SOLN STA NAME / NUM 
BAKE 40152M001            -289834328 -2756501189  5725162399SOLN STA NAME / NUM 
BAKO 23101M002           -1836969518  6065616913  -716257946SOLN STA NAME / NUM 
BARH 49927S001            1693644572 -4239067596  4439567327SOLN STA NAME / NUM 
BBYS 11514M001            3980358614  1382292295  4772772072SOLN STA NAME / NUM 
BJFS 21601M001           -2148744623  4426641149  4044655782SOLN STA NAME / NUM 
BNDY 50185M001           -5125977600  2688801225 -2669890118SOLN STA NAME / NUM 
BOGI 12207M003            3633815144  1397454334  5035281089SOLN STA NAME / NUM 
BOGO 12207M002            3633738662  1397434387  5035353622SOLN STA NAME / NUM 
BOGT 41901M001            1744398870 -6116036991   512731939SOLN STA NAME / NUM 
BOR1 12205M002            3738358162  1148173975  5021815913SOLN STA NAME / NUM 
BRAZ 41606M001            4115014060 -4550641643 -1741443739SOLN STA NAME / NUM 
BREW 40473M001           -2112007395 -3705351824  4726827019SOLN STA NAME / NUM 
BRFT 41602M002            4985393492 -3954993488  -428426487SOLN STA NAME / NUM 
BRST 10004M004            4231162374  -332746377  4745131097SOLN STA NAME / NUM 
BRUX 13101M010            4027881337   306998781  4919499029SOLN STA NAME / NUM 
BSHM 20705M001            4395951105  3080707268  3433498318SOLN STA NAME / NUM 
CAGS 40147M001            1096348777 -4335060675  4533255287SOLN STA NAME / NUM 
CAS1 66011M001            -901776131  2409383211 -5816748555SOLN STA NAME / NUM 
CCJ2 21732M002           -4490605078  3483895085  2884928338SOLN STA NAME / NUM 
CEDU 50138M001           -3753473285  3912741036 -3347959596SOLN STA NAME / NUM 
CHOF 21788M001           -3946217072  3366689455  3698971697SOLN STA NAME / NUM 
CHPG 41609M004            4163476681 -4163821999 -2444511051SOLN STA NAME / NUM 
CHPI 41609M003            4164613903 -4162456992 -2445028600SOLN STA NAME / NUM 
CHTI 50242M001           -4607856282  -272375266 -4386954128SOLN STA NAME / NUM 
CHUR 40128M002            -236439181 -3307616967  5430049345SOLN STA NAME / NUM 
CKIS 50213M003           -5583182716 -2054142613 -2292166138SOLN STA NAME / NUM 
COCO 50127M001            -741951162  6190961715 -1337767270SOLN STA NAME / NUM 
CORD 41511M001            2345503865 -4910842946 -3316365206SOLN STA NAME / NUM 
CPVG 39601M001            5626883442 -2380932304  1824484022SOLN STA NAME / NUM 
CRO1 43201M001            2607771341 -5488076534  1932767996SOLN STA NAME / NUM 
CUT0 59945M001           -2364337527  4870285635 -3360809572SOLN STA NAME / NUM 
DAEJ 23902M002           -3120042472  4084614654  3764026768SOLN STA NAME / NUM 
DARW 50134M001           -4091359683  4684606388 -1408579004SOLN STA NAME / NUM 
DAV1 66010M001             486854588  2285099158 -5914955717SOLN STA NAME / NUM 
DGAR 30802M001            1916268682  6029977767  -801719350SOLN STA NAME / NUM 
DHLG 49904M001           -2319099437 -4799846464  3490090375SOLN STA NAME / NUM 
DLF1 13502M009            3924697674   301125229  5001905305SOLN STA NAME / NUM 
DOUR 13113M001            4086777990   328452194  4869782754SOLN STA NAME / NUM 
DRAO 40105M002           -2059165057 -3621108403  4814432214SOLN STA NAME / NUM 
DUBO 40137M001            -417603997 -4064529844  4881432125SOLN STA NAME / NUM 
DYNG 12602M006            4595219986  2039434179  3912625978SOLN STA NAME / NUM 
EBRE 13410M001            4833519956    41537443  4147461746SOLN STA NAME / NUM 
FAA1 92201M012           -5247393724 -3076866307 -1911520957SOLN STA NAME / NUM 
FAIR 40408M001           -2281621981 -1453595949  5756961571SOLN STA NAME / NUM 
FLIN 40135M001            -766174879 -3611375368  5184056186SOLN STA NAME / NUM 
FRDN 40146M001            1760542482 -4080068024  4560178654SOLN STA NAME / NUM 
FTNA 92902S002           -6178322533  -202694395 -1566024130SOLN STA NAME / NUM 
FUNC 13911S001            5143339201 -1563412460  3421191820SOLN STA NAME / NUM 
GANP 11515M001            3929181250  1455236997  4793654060SOLN STA NAME / NUM 
GLPS 42005M002             -33800798 -6377516515   -82154202SOLN STA NAME / NUM 
GLSV 12356M001            3512888620  2068980121  4888903342SOLN STA NAME / NUM 
GODE 40451M123            1130773488 -4831253570  3994200464SOLN STA NAME / NUM 
GODZ 40451M123            1130773488 -4831253570  3994200464SOLN STA NAME / NUM 
GOL2 40405S031           -2353614539 -4641385244  3676976363SOLN STA NAME / NUM 
GOP6 11502M006            3979319130  1050312342  4857064679SOLN STA NAME / NUM 
GOPE 11502M002            3979315848  1050312757  4857067271SOLN STA NAME / NUM 
GRAC 10002M010            4581708185   556132863  4389341403SOLN STA NAME / NUM 
GRAS 10002M006            4581690663   556115155  4389360987SOLN STA NAME / NUM 
GRAZ 11001M002            4194423524  1162702996  4647245590SOLN STA NAME / NUM 
GUAT 40901S001             -56063516 -6174978636  1596665295SOLN STA NAME / NUM 
GUUG 82301M001           -5070465169  3576460297  1472093841SOLN STA NAME / NUM 
HARB 30302M009            5084657607  2670325442 -2768480866SOLN STA NAME / NUM 
HERS 13212M007            4033469867    23673171  4924301472SOLN STA NAME / NUM 
HERT 13212M010            4033460696    23538086  4924318425SOLN STA NAME / NUM 
HLFX 40120M001            2018905489 -4069070519  4462415514SOLN STA NAME / NUM 
HNLC 49970S001           -5506798936 -2240048468  2302720969SOLN STA NAME / NUM 
HNPT 49913S001            1196626086 -4846358486  3956723142SOLN STA NAME / NUM 
HOB2 50116M004           -3950072333  2522415378 -4311637321SOLN STA NAME / NUM 
HOFN 10204M002            2679689922  -727950955  5722789600SOLN STA NAME / NUM 
HOLB 40130M001           -2503040788 -3188233331  4908701410SOLN STA NAME / NUM 
HYDE 22307M001            1208443861  5966805973  1897077449SOLN STA NAME / NUM 
IENG 12724S001            4476537250   600431658  4488761475SOLN STA NAME / NUM 
IISC 22306M002            1337935715  6070317107  1427877365SOLN STA NAME / NUM 
INVK 40150M001           -1628432445 -1714393087  5903844568SOLN STA NAME / NUM 
IQAL 40194M001            1036000786 -2631455608  5697819768SOLN STA NAME / NUM 
ISBA 20308M001            3808364484  3734430231  3485693773SOLN STA NAME / NUM 
JFNG 21602M006           -2279828997  5004706502  3219777392SOLN STA NAME / NUM 
JOZ2 12204M002            3664880260  1409190853  5009618611SOLN STA NAME / NUM 
JOZE 12204M001            3664939846  1409154118  5009571519SOLN STA NAME / NUM 
KARR 50139M001           -2713833359  5303935114 -2269513639SOLN STA NAME / NUM 
KERG 91201M002            1406337189  3918161092 -4816167393SOLN STA NAME / NUM 
KIR0 10422M001            2248122915   865686865  5886425987SOLN STA NAME / NUM 
KIR8 10422M002            2248126863   865685757  5886424607SOLN STA NAME / NUM 
KIRU 10403M002            2251420516   862817412  5885476895SOLN STA NAME / NUM 
KIT3 12334M001            1944944678  4556652373  4004326072SOLN STA NAME / NUM 
KOKB 40424M004           -5543838351 -2054585685  2387810511SOLN STA NAME / NUM 
KOKV 40424M004           -5543838351 -2054585685  2387810511SOLN STA NAME / NUM 
KOUG 97301M402            3855263289 -5049732011   563040557SOLN STA NAME / NUM 
KOUR 97301M210            3839591316 -5059567586   579957255SOLN STA NAME / NUM 
KRGG 91201M007            1406336167  3918154597 -4816172890SOLN STA NAME / NUM 
LAUT 50804M002           -6075194703   270923726 -1917188992SOLN STA NAME / NUM 
LEIJ 14267M001            3898736213   855345467  4958372559SOLN STA NAME / NUM 
LMMF 97205M001            2993387419 -5399363807  1596748198SOLN STA NAME / NUM 
LPAL 81701M001            5326646211 -1719825949  3052043934SOLN STA NAME / NUM 
LPGS 41510M001            2780103010 -4437419057 -3629404349SOLN STA NAME / NUM 
M0SE 12772M001            4642432210  1028629734  4236854437SOLN STA NAME / NUM 
MAC1 50135M001           -3464038931  1334173268 -5169223849SOLN STA NAME / NUM 
MAD2 13407S012            4849202267  -360328733  4114913358SOLN STA NAME / NUM 
MADR 13407S012            4849202267  -360328733  4114913358SOLN STA NAME / NUM 
MAL2 33201M003            4865385405  4110717532  -331137346SOLN STA NAME / NUM 
MANA 41201S001             407981961 -6222925638  1333529117SOLN STA NAME / NUM 
MAO0 40445M005           -5466067116 -2404332950  2242123230SOLN STA NAME / NUM 
MAR6 10405M002            2998189182   931452021  5533398909SOLN STA NAME / NUM 
MAR7 10405M003            2998198286   931450076  5533392982SOLN STA NAME / NUM 
MARS 10073M008            4630532597   433946540  4350142845SOLN STA NAME / NUM 
MAS1 31303M002            5439192139 -1522055174  2953455102SOLN STA NAME / NUM 
MAT1 12734M009            4641951125  1393053981  4133281106SOLN STA NAME / NUM 
MATE 12734M008            4641949232  1393045747  4133287708SOLN STA NAME / NUM 
MAUI 40445S008           -5466069104 -2404327020  2242127987SOLN STA NAME / NUM 
MAW1 66004M001            1111287216  2168911182 -5874493597SOLN STA NAME / NUM 
MAYG 90101M001            4379104534  4418744548 -1401897858SOLN STA NAME / NUM 
MCIL 21789S001           -5227187440  2551881385  2607618324SOLN STA NAME / NUM 
MCM4 66001M003           -1311703020   310814799 -6213255153SOLN STA NAME / NUM 
MDO1 40442M012           -1329998987 -5328393358  3236504073SOLN STA NAME / NUM 
MDVJ 12309M005            2845455711  2160954450  5265993329SOLN STA NAME / NUM 
MEDI 12711M003            4461400428   919593900  4449504958SOLN STA NAME / NUM 
METG 10503M002            2890652414  1310295618  5513958909SOLN STA NAME / NUM 
METS 10503S011            2892570498  1311843684  5512634297SOLN STA NAME / NUM 
MGUE 41558M001            1823327803 -4850352578 -3709085423SOLN STA NAME / NUM 
MIZU 21702M002           -3857171099  3108692819  4004040150SOLN STA NAME / NUM 
MKEA 40477M001           -5464105435 -2495165324  2148291733SOLN STA NAME / NUM 
MOBJ 12365M002            2936424282  2178374255  5208858542SOLN STA NAME / NUM 
MOBS 50182M001           -4130636838  2894953154 -3890530145SOLN STA NAME / NUM 
MONP 40497M004           -2386247630 -4802358941  3444902484SOLN STA NAME / NUM 
MORP 13299S001            3645667618  -107276970  5215053698SOLN STA NAME / NUM 
MQZG 50214M001           -4580569832   590466423 -4384379635SOLN STA NAME / NUM 
MRO1 59913M001           -2556630138  5097138298 -2848384678SOLN STA NAME / NUM 
MTKA 21741S002           -3947763197  3364399470  3699428536SOLN STA NAME / NUM 
MYVA 10205M001            2524224532  -766501979  5787949728SOLN STA NAME / NUM 
NANO 40138M001           -2335726990 -3451608361  4812009876SOLN STA NAME / NUM 
NICO 14302M001            4359415400  2874117253  3650778042SOLN STA NAME / NUM 
NIST 49507M002           -1288398564 -4721696928  4078625338SOLN STA NAME / NUM 
NKLG 32809M002            6287385692  1071574904    39133233SOLN STA NAME / NUM 
NLIB 40465M001            -130934871 -4762291691  4226854606SOLN STA NAME / NUM 
NNOR 50181M001           -2414152483  4907778658 -3270644102SOLN STA NAME / NUM 
NOT1 12717M004            4934545920  1321265306  3806456374SOLN STA NAME / NUM 
NRC1 40114M001            1112776926 -4341475908  4522955884SOLN STA NAME / NUM 
NTUS 22601M001           -1508023281  6195576523   148799312SOLN STA NAME / NUM 
NYA1 10317M003            1202433596   252632414  6237772790SOLN STA NAME / NUM 
NYA2 10317M008            1202379301   252474686  6237786434SOLN STA NAME / NUM 
NYAL 10317M001            1202430293   252626830  6237767812SOLN STA NAME / NUM 
OHI2 66008M005            1525812183 -2432478226 -5676165534SOLN STA NAME / NUM 
ONS1 10402M007            3370666743   711819104  5349788214SOLN STA NAME / NUM 
ONSA 10402M004            3370658294   711877382  5349787118SOLN STA NAME / NUM 
OUS2 50212M002           -4387891095   733421037 -4555175972SOLN STA NAME / NUM 
PADO 12750S001            4388881727   924567761  4519588917SOLN STA NAME / NUM 
PARC 41716S001            1255992570 -3622975251 -5079719132SOLN STA NAME / NUM 
PARK 50108M001           -4554255293  2816652438 -3454059607SOLN STA NAME / NUM 
PDEL 31906M004            4551595862 -2186892837  3883411034SOLN STA NAME / NUM 
PENC 11206M006            4052449170  1417681418  4701407274SOLN STA NAME / NUM 
PERT 50133M001           -2368688142  4881316724 -3341794879SOLN STA NAME / NUM 
PIE1 40456M001           -1640917138 -5014781190  3575447003SOLN STA NAME / NUM 
PIMO 22003M001           -3186293505  5286624456  1601158401SOLN STA NAME / NUM 
POHN 51601M001           -5879158200  2350292894   767748664SOLN STA NAME / NUM 
POL2 12348M001            1239970901  4530790172  4302578884SOLN STA NAME / NUM 
POLV 12336M001            3411556997  2348464201  4834397019SOLN STA NAME / NUM 
POTS 14106M003            3800689359   882077655  5028791477SOLN STA NAME / NUM 
POVE 41628M001            2774265580 -5662060185  -959415719SOLN STA NAME / NUM 
PRDS 40124M001           -1659603259 -3676725792  4925493437SOLN STA NAME / NUM 
PTBB 14234M001            3844059688   709661591  5023129712SOLN STA NAME / NUM 
PTVL 51402M002           -5950573199  1230677813 -1932016916SOLN STA NAME / NUM 
QAQ1 43007M001            2170941785 -2251830045  5539988525SOLN STA NAME / NUM 
QUIN 40433M004           -2517231486 -4198594943  4076531158SOLN STA NAME / NUM 
RABT 35001M002            5255617534  -631745393  3546322801SOLN STA NAME / NUM 
RAMO 20703S001            4514721491  3133508075  3228025001SOLN STA NAME / NUM 
REDU 13102M001            4091423199   368380793  4863179935SOLN STA NAME / NUM 
REUN 97401M003            3364098889  4907944684 -2293466660SOLN STA NAME / NUM 
REYK 10202M001            2587383945 -1043033576  5716564164SOLN STA NAME / NUM 
RGDG 41507M007            1429870470 -3495334853 -5122722946SOLN STA NAME / NUM 
RIO2 41507M006            1429907903 -3495354959 -5122698504SOLN STA NAME / NUM 
RIOP 42006M001            1255144949 -6253609436  -182569667SOLN STA NAME / NUM 
SALU 41640M001            4566947844 -4443098562  -286674525SOLN STA NAME / NUM 
SAMO 50603M001           -6129702436  -890028393 -1516806704SOLN STA NAME / NUM 
SANT 41705M003            1769693479 -5044574316 -3468320865SOLN STA NAME / NUM 
SAVO 41643M001            4870283739 -3864605382 -1418872339SOLN STA NAME / NUM 
SCH2 40133M002            1448636492 -3385243804  5191047256SOLN STA NAME / NUM 
SCOR 43006M002            1982095725  -798821030  5989464676SOLN STA NAME / NUM 
SCTB 66071M001           -1311028616   308512457 -6213390879SOLN STA NAME / NUM 
SCUB 40701M001            1474537991 -5811243262  2168958898SOLN STA NAME / NUM 
SEYG 39801M004            3597835845  5240884133  -516780925SOLN STA NAME / NUM 
SGOC 23501M003            1113279832  6233644325   760277130SOLN STA NAME / NUM 
SMST 21726M001           -3822373332  3699359951  3507585742SOLN STA NAME / NUM 
SOFI 11101M002            4319371779  1868688087  4292064064SOLN STA NAME / NUM 
SPT0 10425M001            3328984289   761910513  5369033874SOLN STA NAME / NUM 
STFU 49430S001           -2700404284 -4292605411  3855137411SOLN STA NAME / NUM 
STHL 30606M003            6104817279  -605827759 -1740738642SOLN STA NAME / NUM 
STJ3 40101M005            2612588579 -3426820646  4686773783SOLN STA NAME / NUM 
STJO 40101M001            2612630786 -3426807056  4686758020SOLN STA NAME / NUM 
STK2 21731S004           -3642161480  2861487864  4370351209SOLN STA NAME / NUM 
STR2 50119M001           -4467075321  2683011853 -3667006961SOLN STA NAME / NUM 
SUTH 30314M002            5041274909  1916054481 -3397075665SOLN STA NAME / NUM 
SUTM 30314M004            5041190276  1916067465 -3397189126SOLN STA NAME / NUM 
SUWN 23903M001           -3062023351  4055447779  3841818103SOLN STA NAME / NUM 
SYDN 50124M003           -4648240935  2560636443 -3526317699SOLN STA NAME / NUM 
SYOG 66006S002            1766207946  1460290311 -5932297653SOLN STA NAME / NUM 
TABL 49901M001           -2448550440 -4668098829  3582741129SOLN STA NAME / NUM 
TABV 49901M001           -2448550441 -4668098830  3582741129SOLN STA NAME / NUM 
TASH 12327M001            1695944750  4487138684  4190140765SOLN STA NAME / NUM 
TEHN 20404M002            3240498836  4049740473  3701663346SOLN STA NAME / NUM 
THTG 92201M016           -5246415407 -3077260468 -1913841696SOLN STA NAME / NUM 
THTI 92201M009           -5246416231 -3077259140 -1913841646SOLN STA NAME / NUM 
THU2 43001M002             538093168 -1389088138  6180979365SOLN STA NAME / NUM 
TID1 50103M108           -4460997037  2682557085 -3674442544SOLN STA NAME / NUM 
TIDB 50103M108           -4460997035  2682557084 -3674442543SOLN STA NAME / NUM 
TIXG 12360M001           -1264873536  1569455748  6031003372SOLN STA NAME / NUM 
TLSE 10003M009            4627851616   119640344  4372993741SOLN STA NAME / NUM 
TONG 50902M001           -5930303502  -500148934 -2286366284SOLN STA NAME / NUM 
TOW2 50140M001           -5054583466  3275504083 -2091538362SOLN STA NAME / NUM 
TRO1 10302M006            2102928185   721619621  5958196397SOLN STA NAME / NUM 
TSEA 49448S001           -2666155512 -1545828423  5565470204SOLN STA NAME / NUM 
TSK2 21730S010           -3957184767  3310231047  3737703852SOLN STA NAME / NUM 
TSKB 21730S005           -3957200061  3310198997  3737711500SOLN STA NAME / NUM 
TUVA 51101M001           -6307543807    88455487  -939277526SOLN STA NAME / NUM 
TWTF 23603S002           -2994428659  4951309024  2674496687SOLN STA NAME / NUM 
UCAL 49106M001           -1641945096 -3664803788  4940009231SOLN STA NAME / NUM 
UCLU 40140M001           -2440669141 -3416437103  4785136808SOLN STA NAME / NUM 
UFPR 41610M002            3763751689 -4365113955 -2724404456SOLN STA NAME / NUM 
ULAB 24201M001           -1257409049  4099404317  4707992548SOLN STA NAME / NUM 
UNB3 40146M002            1761287838 -4078238520  4561417815SOLN STA NAME / NUM 
UNBJ 40146M002            1761287837 -4078238520  4561417815SOLN STA NAME / NUM 
UNBN 40146M002            1761287838 -4078238520  4561417815SOLN STA NAME / NUM 
UNSA 41514M001            2412830484 -5271936793 -2652208842SOLN STA NAME / NUM 
URUM 21612M001             193030101  4606851264  4393311510SOLN STA NAME / NUM 
USN7 40451S009            1112162101 -4842854652  3985497060SOLN STA NAME / NUM 
USUD 21729S007           -3855263489  3427432152  3741020337SOLN STA NAME / NUM 
VALD 40156M001             919075530 -4167766369  4724323675SOLN STA NAME / NUM 
VILL 13406M001            4849833529  -335048699  4116015149SOLN STA NAME / NUM 
VIS0 10423M001            3246470066  1077900690  5365278222SOLN STA NAME / NUM 
VOIM 33303M001            4054014069  4316070381 -2365223899SOLN STA NAME / NUM 
WAB2 14014M002            4327318234   566955959  4636425914SOLN STA NAME / NUM 
WARK 50243M001           -5115333539   477886874 -3767147053SOLN STA NAME / NUM 
WES2 40440S020            1492232977 -4458089513  4296046107SOLN STA NAME / NUM 
WGTN 50208M003           -4777269902   434270610 -4189483923SOLN STA NAME / NUM 
WHIT 40136M001           -2218338235 -2201205125  5543057465SOLN STA NAME / NUM 
WILL 40134M001           -2084258436 -3313873009  5019852942SOLN STA NAME / NUM 
WIND 31101M001            5633708803  1732018073 -2433985470SOLN STA NAME / NUM 
WROC 12217M001            3835751101  1177250152  4941605360SOLN STA NAME / NUM 
WSRT 13506M005            3828735599   443305228  5064884878SOLN STA NAME / NUM 
WTZ2 14201M015            4075534998   931822536  4801609131SOLN STA NAME / NUM 
WTZ3 14201M015            4075534998   931822536  4801609131SOLN STA NAME / NUM 
WTZA 14201M013            4075578173   931853008  4801570156SOLN STA NAME / NUM 
WTZL 14201M022            4075577641   931854395  4801570331SOLN STA NAME / NUM 
WTZR 14201M010            4075580266   931854085  4801568293SOLN STA NAME / NUM 
WTZS 14201M015            4075534998   931822536  4801609131SOLN STA NAME / NUM 
WTZZ 14201M014            4075579146   931853401  4801569201SOLN STA NAME / NUM 
WUH2 21602M007           -2267749997  5009154549  3221294416SOLN STA NAME / NUM 
WUHN 21602M001           -2267750008  5009154193  3221290578SOLN STA NAME / NUM 
XMIS 50183M001           -1696344839  6039589993 -1149274969SOLN STA NAME / NUM 
YAKT 12353M002           -1914999313  2308241440  5610225464SOLN STA NAME / NUM 
YAR2 50107M004           -2389026713  5043317079 -3078529456SOLN STA NAME / NUM 
YAR3 50107M008           -2389043866  5043313602 -3078524288SOLN STA NAME / NUM 
YARR 50107M006           -2389025676  5043315559 -3078532875SOLN STA NAME / NUM 
YEL2 40127M006           -1224442088 -2689174655  5633660341SOLN STA NAME / NUM 
YELL 40127M003           -1224453019 -2689216222  5633638288SOLN STA NAME / NUM 
YKRO 32601M001            6306439975  -578380499   757956740SOLN STA NAME / NUM 
YSSK 12329M003           -3465321212  2638269276  4644085290SOLN STA NAME / NUM 
ZAMB 34601M001            5415352939  2917210237 -1685888565SOLN STA NAME / NUM 
ZECK 12351M001            3451174329  3060335680  4391955807SOLN STA NAME / NUM 
ZIM2 14001M008            4331299631   567537628  4633133907SOLN STA NAME / NUM 
ZIM3 14001M008            4331299631   567537628  4633133907SOLN STA NAME / NUM 
ZIMM 14001M004            4331296822   567556181  4633134128SOLN STA NAME / NUM 
    52                                                      # OF SOLN SATS      
G01 G02 G03 G04 G05 G06 G07 G08 G09 G10 G11 G12 G13 G14 G15 PRN LIST            
G16 G17 G18 G19 G20 G21 G22 G23 G24 G25 G26 G27 G28 G29 G30 PRN LIST            
G31 G32 R01 R02 R03 R04 R05 R07 R08 R09 R11 R12 R13 R14 R15 PRN LIST            
R17 R18 R19 R20 R21 R22 R24                                 PRN LIST            
                                                            END OF HEADER       
AR GOLD 2022 01 14 00 00  0.000000  2   -0.228048776608E-03  0.188036644996E-10          
AR ABMF 2022 01 14 00 00  0.000000  2    0.440606380816E-03  0.384157097120E-10          
AR ABPO 2022 01 14 00 00  0.000000  2   -0.753011582640E-08  0.240035817451E-10          
AR AIRA 2022 01 14 00 00  0.000000  2   -0.294894418461E-07  0.242295602555E-10          
AR AJAC 2022 01 14 00 00  0.000000  2    0.386907760810E-07  0.200116030044E-10          
AR ALBH 2022 01 14 00 00  0.000000  2    0.950788878897E-08  0.171637945913E-10          
AR ALGO 2022 01 14 00 00  0.000000  2   -0.257348290854E-04  0.194657311946E-10          
AR ALIC 2022 01 14 00 00  0.000000  2   -0.973274860370E-09  0.307312309404E-10          
AR AMU2 2022 01 14 00 00  0.000000  2   -0.416307160817E-07  0.325398576350E-10          
AR ANTC 2022 01 14 00 00  0.000000  2   -0.332452406688E-03  0.276759894461E-10          
AR AREG 2022 01 14 00 00  0.000000  2    0.206761863189E-03  0.236902147924E-10          
AR AREQ 2022 01 14 00 00  0.000000  2    0.227005414719E-03  0.252193459415E-10          
AR ASCG 2022 01 14 00 00  0.000000  2   -0.385391543548E-07  0.289239954477E-10          
AR AUCK 2022 01 14 00 00  0.000000  2   -0.126079543355E-07  0.227382206230E-10          
AR AXPV 2022 01 14 00 00  0.000000  2   -0.219287424031E-07  0.242568698469E-10          
AR BADG 2022 01 14 00 00  0.000000  2    0.496645214333E-04  0.253992665477E-10          
AR BAKE 2022 01 14 00 00  0.000000  2    0.216530887456E-07  0.248311525407E-10          
AR BAKO 2022 01 14 00 00  0.000000  2    0.959567756164E-08  0.310569345347E-10          
AR BARH 2022 01 14 00 00  0.000000  2    0.134866202976E-07  0.271991770288E-10          
AR BBYS 2022 01 14 00 00  0.000000  2   -0.288485375572E-07  0.247776766713E-10          
AR BJFS 2022 01 14 00 00  0.000000  2   -0.254396216431E-07  0.216346351927E-10          
AR BNDY 2022 01 14 00 00  0.000000  2    0.487680927260E-03  0.369949915769E-10          
AR BOGI 2022 01 14 00 00  0.000000  2   -0.226390231932E-03  0.273084062427E-10          
AR BOGO 2022 01 14 00 00  0.000000  2   -0.610824099057E-04  0.277701491401E-10          
AR BOGT 2022 01 14 00 00  0.000000  2   -0.100002694637E-07  0.372462958358E-10          
AR BOR1 2022 01 14 00 00  0.000000  2   -0.196028387447E-07  0.203289516663E-10          
AR BRAZ 2022 01 14 00 00  0.000000  2   -0.361964525436E-07  0.375819454941E-10          
AR BREW 2022 01 14 00 00  0.000000  2   -0.175929447156E-03  0.165158091748E-10          
AR BRFT 2022 01 14 00 00  0.000000  2   -0.714202231929E-08  0.592147594472E-10          
AR BRST 2022 01 14 00 00  0.000000  2   -0.249968529596E-07  0.228463073476E-10          
AR BRUX 2022 01 14 00 00  0.000000  2    0.203275260651E-06  0.112393851711E-10          
AR BSHM 2022 01 14 00 00  0.000000  2    0.401957458105E-04  0.332919979443E-10          
AR CAGS 2022 01 14 00 00  0.000000  2   -0.265870618884E-07  0.257181920317E-10          
AR CAS1 2022 01 14 00 00  0.000000  2    0.307777954943E-03  0.216351236690E-10          
AR CCJ2 2022 01 14 00 00  0.000000  2   -0.288456384757E-07  0.311659297927E-10          
AR CEDU 2022 01 14 00 00  0.000000  2    0.142715038764E-07  0.211700436695E-10          
AR CHOF 2022 01 14 00 00  0.000000  2    0.140570147589E-07  0.224371440203E-10          
AR CHPG 2022 01 14 00 00  0.000000  2   -0.415737724883E-07  0.370129904570E-10          
AR CHPI 2022 01 14 00 00  0.000000  2   -0.117407158629E-03  0.265176357302E-10          
AR CHTI 2022 01 14 00 00  0.000000  2   -0.459882033686E-08  0.242060085474E-10          
AR CHUR 2022 01 14 00 00  0.000000  2    0.251115130681E-07  0.208612462631E-10          
AR CKIS 2022 01 14 00 00  0.000000  2   -0.348842238659E-07  0.379058133195E-10          
AR COCO 2022 01 14 00 00  0.000000  2    0.499253713052E-08  0.319867473646E-10          
AR CORD 2022 01 14 00 00  0.000000  2   -0.142515392848E-07  0.265336161934E-10          
AR CPVG 2022 01 14 00 00  0.000000  2   -0.291660330756E-07  0.552401632169E-10          
AR CRO1 2022 01 14 00 00  0.000000  2   -0.358314701313E-02  0.365898238989E-10          
AR CUT0 2022 01 14 00 00  0.000000  2    0.333301232661E-03  0.244237544226E-10          
AR DAEJ 2022 01 14 00 00  0.000000  2   -0.297327849853E-07  0.221651691226E-10          
AR DARW 2022 01 14 00 00  0.000000  2    0.289875633049E-08  0.384206055427E-10          
AR DAV1 2022 01 14 00 00  0.000000  2    0.968005646222E-04  0.208400819934E-10          
AR DGAR 2022 01 14 00 00  0.000000  2   -0.648044045488E-08  0.360780678250E-10          
AR DHLG 2022 01 14 00 00  0.000000  2    0.216257647035E-01  0.715576098974E-10          
AR DLF1 2022 01 14 00 00  0.000000  2   -0.308124871519E-07  0.168772394889E-10          
AR DOUR 2022 01 14 00 00  0.000000  2    0.127304754844E-03  0.229480413870E-10          
AR DRAO 2022 01 14 00 00  0.000000  2    0.741803460608E-08  0.144388015471E-10          
AR DUBO 2022 01 14 00 00  0.000000  2    0.750192032704E-05  0.187951303865E-10          
AR DYNG 2022 01 14 00 00  0.000000  2   -0.252894428789E-03  0.151044943572E-10          
AR EBRE 2022 01 14 00 00  0.000000  2    0.131079987951E-07  0.197450064069E-10          
AR FAA1 2022 01 14 00 00  0.000000  2    0.297925567398E-05  0.338816866279E-10          
AR FAIR 2022 01 14 00 00  0.000000  2   -0.476230915927E-08  0.277857459905E-10          
AR FLIN 2022 01 14 00 00  0.000000  2    0.851832065623E-08  0.203344373852E-10          
AR FRDN 2022 01 14 00 00  0.000000  2    0.676742879736E-08  0.172424308780E-10          
AR FTNA 2022 01 14 00 00  0.000000  2   -0.391120050100E-07  0.499204135141E-10          
AR FUNC 2022 01 14 00 00  0.000000  2    0.630578032255E-09  0.252668634749E-10          
AR GANP 2022 01 14 00 00  0.000000  2   -0.260748099336E-07  0.333779095258E-10          
AR GLPS 2022 01 14 00 00  0.000000  2   -0.123558980235E-07  0.344959376527E-10          
AR GLSV 2022 01 14 00 00  0.000000  2    0.143513079495E-07  0.250898574178E-10          
AR GODE 2022 01 14 00 00  0.000000  2   -0.101713016251E-03  0.176682185624E-10          
AR GODZ 2022 01 14 00 00  0.000000  2   -0.445689913111E-03  0.228964705014E-10          
AR GOL2 2022 01 14 00 00  0.000000  2    0.591862392139E-03  0.168446718854E-10          
AR GOP6 2022 01 14 00 00  0.000000  2    0.556540370546E-08  0.155970475998E-10          
AR GOPE 2022 01 14 00 00  0.000000  2    0.107154900312E-03  0.208947035673E-10          
AR GRAC 2022 01 14 00 00  0.000000  2    0.340349767512E-07  0.203303535935E-10          
AR GRAS 2022 01 14 00 00  0.000000  2   -0.261184073620E-07  0.202190174996E-10          
AR GRAZ 2022 01 14 00 00  0.000000  2    0.287298848831E-03  0.240323363738E-10          
AR GUAT 2022 01 14 00 00  0.000000  2    0.483700215991E-08  0.334860977294E-10          
AR GUUG 2022 01 14 00 00  0.000000  2   -0.411106535773E-07  0.338604182102E-10          
AR HARB 2022 01 14 00 00  0.000000  2   -0.242529552276E-03  0.256417809041E-10          
AR HERS 2022 01 14 00 00  0.000000  2   -0.426392893050E-03  0.156599878691E-10          
AR HERT 2022 01 14 00 00  0.000000  2   -0.125753310498E-08  0.175641742683E-10          
AR HLFX 2022 01 14 00 00  0.000000  2    0.171454915706E-03  0.203878182229E-10          
AR HNLC 2022 01 14 00 00  0.000000  2   -0.289763519896E-07  0.367837404689E-10          
AR HNPT 2022 01 14 00 00  0.000000  2    0.329057947083E-08  0.127279728669E-09          
AR HOB2 2022 01 14 00 00  0.000000  2   -0.359665968388E-03  0.280894360386E-10          
AR HOFN 2022 01 14 00 00  0.000000  2    0.144951885646E-07  0.226754211666E-10          
AR HOLB 2022 01 14 00 00  0.000000  2    0.127510422883E-07  0.228844732495E-10          
AR HYDE 2022 01 14 00 00  0.000000  2    0.686428850042E-09  0.315308524315E-10          
AR IENG 2022 01 14 00 00  0.000000  2   -0.294778423811E-06  0.168169917298E-10          
AR IISC 2022 01 14 00 00  0.000000  2   -0.665925093440E-08  0.323376552764E-10          
AR INVK 2022 01 14 00 00  0.000000  2   -0.144246578409E-07  0.299011701825E-10          
AR IQAL 2022 01 14 00 00  0.000000  2    0.152410475410E-07  0.283219168489E-10          
AR ISBA 2022 01 14 00 00  0.000000  2   -0.211957569482E-07  0.276612193301E-10          
AR JFNG 2022 01 14 00 00  0.000000  2   -0.202800312592E-07  0.297508806931E-10          
AR JOZ2 2022 01 14 00 00  0.000000  2   -0.269436331861E-07  0.207870477664E-10          
AR JOZE 2022 01 14 00 00  0.000000  2   -0.237392902354E-03  0.193649266191E-10          
AR KARR 2022 01 14 00 00  0.000000  2    0.839440002598E-09  0.344327446371E-10          
AR KERG 2022 01 14 00 00  0.000000  2   -0.299304954580E-07  0.356723818631E-10          
AR KIR0 2022 01 14 00 00  0.000000  2    0.485500331557E-03  0.196058917297E-10          
AR KIR8 2022 01 14 00 00  0.000000  2   -0.254776725955E-07  0.225394070656E-10          
AR KIRU 2022 01 14 00 00  0.000000  2    0.123883302745E-07  0.235354865351E-10          
AR KIT3 2022 01 14 00 00  0.000000  2    0.884368291433E-08  0.230717132323E-10          
AR KOKB 2022 01 14 00 00  0.000000  2    0.110968304703E-04  0.255203531250E-10          
AR KOKV 2022 01 14 00 00  0.000000  2    0.346603384724E-04  0.258042022054E-10          
AR KOUG 2022 01 14 00 00  0.000000  2   -0.813092321713E-04  0.296236469171E-10          
AR KOUR 2022 01 14 00 00  0.000000  2    0.255637312009E-07  0.327233149777E-10          
AR KRGG 2022 01 14 00 00  0.000000  2   -0.266505759036E-07  0.306905434923E-10          
AR LAUT 2022 01 14 00 00  0.000000  2    0.690980604952E-04  0.368932524283E-10          
AR LEIJ 2022 01 14 00 00  0.000000  2   -0.142563426452E-03  0.274163351840E-10          
AR LMMF 2022 01 14 00 00  0.000000  2   -0.312562784013E-07  0.370593289820E-10          
AR LPAL 2022 01 14 00 00  0.000000  2    0.449013743865E-08  0.466769043959E-10          
AR LPGS 2022 01 14 00 00  0.000000  2   -0.298809787886E-03  0.259007972877E-10          
AR M0SE 2022 01 14 00 00  0.000000  2    0.466189133596E-07  0.201224762196E-10          
AR MAC1 2022 01 14 00 00  0.000000  2   -0.464953629386E-04  0.192814152815E-10          
AR MAD2 2022 01 14 00 00  0.000000  2   -0.401580039241E-03  0.586755190488E-10          
AR MADR 2022 01 14 00 00  0.000000  2   -0.509044266559E-04  0.400436603713E-10          
AR MAL2 2022 01 14 00 00  0.000000  2   -0.871549355747E-04  0.298530732044E-10          
AR MANA 2022 01 14 00 00  0.000000  2   -0.313054173459E-07  0.364309826703E-10          
AR MAO0 2022 01 14 00 00  0.000000  2    0.279796422160E-03  0.244278235425E-10          
AR MAR6 2022 01 14 00 00  0.000000  2    0.255030267611E-04  0.180123812412E-10          
AR MAR7 2022 01 14 00 00  0.000000  2   -0.271975752410E-07  0.230323866501E-10          
AR MARS 2022 01 14 00 00  0.000000  2    0.180133428806E-07  0.327639321363E-10          
AR MAS1 2022 01 14 00 00  0.000000  2   -0.152548400152E-07  0.214269249201E-10          
AR MAT1 2022 01 14 00 00  0.000000  2    0.130579252214E-07  0.263374051058E-10          
AR MATE 2022 01 14 00 00  0.000000  2   -0.124284255244E-05  0.183809698912E-10          
AR MAUI 2022 01 14 00 00  0.000000  2   -0.219934572141E-03  0.263028772147E-10          
AR MAW1 2022 01 14 00 00  0.000000  2   -0.437269050863E-08  0.201193230501E-10          
AR MAYG 2022 01 14 00 00  0.000000  2   -0.311051282209E-07  0.397044036500E-10          
AR MCIL 2022 01 14 00 00  0.000000  2   -0.461253737519E-07  0.284765700405E-10          
AR MCM4 2022 01 14 00 00  0.000000  2   -0.823498055951E-08  0.173764275614E-10          
AR MDO1 2022 01 14 00 00  0.000000  2   -0.653502257932E-08  0.208402892187E-10          
AR MDVJ 2022 01 14 00 00  0.000000  2    0.193300205658E-03  0.353385562670E-10          
AR MEDI 2022 01 14 00 00  0.000000  2    0.351255100773E-06  0.187685225258E-10          
AR METG 2022 01 14 00 00  0.000000  2    0.213512786451E-03  0.171492108974E-10          
AR METS 2022 01 14 00 00  0.000000  2   -0.105792071668E-03  0.219613169743E-10          
AR MGUE 2022 01 14 00 00  0.000000  2   -0.446904941187E-03  0.274276581899E-10          
AR MIZU 2022 01 14 00 00  0.000000  2    0.613886992154E-08  0.242654697015E-10          
AR MKEA 2022 01 14 00 00  0.000000  2    0.132376811412E-07  0.245581606803E-10          
AR MOBJ 2022 01 14 00 00  0.000000  2   -0.151924245710E-03  0.423809620248E-10          
AR MOBS 2022 01 14 00 00  0.000000  2    0.520583620371E-08  0.361402538908E-10          
AR MONP 2022 01 14 00 00  0.000000  2    0.291222679683E-07  0.452840261430E-10          
AR MORP 2022 01 14 00 00  0.000000  2   -0.287314971093E-07  0.278462972925E-10          
AR MQZG 2022 01 14 00 00  0.000000  2   -0.459290418161E-10  0.265337536493E-10          
AR MRO1 2022 01 14 00 00  0.000000  2   -0.343270185591E-07  0.229613052388E-10          
AR MTKA 2022 01 14 00 00  0.000000  2   -0.412269214613E-07  0.288482037855E-10          
AR MYVA 2022 01 14 00 00  0.000000  2    0.284685815940E-07  0.264055955922E-10          
AR NANO 2022 01 14 00 00  0.000000  2    0.179523766679E-07  0.178344026053E-10          
AR NICO 2022 01 14 00 00  0.000000  2    0.146473530185E-07  0.222542987186E-10          
AR NIST 2022 01 14 00 00  0.000000  2    0.135223864844E-06  0.352591861106E-10          
AR NKLG 2022 01 14 00 00  0.000000  2   -0.347497320850E-03  0.295428655032E-10          
AR NLIB 2022 01 14 00 00  0.000000  2   -0.160806363666E-04  0.302454494295E-10          
AR NNOR 2022 01 14 00 00  0.000000  2    0.679932366383E-05  0.263652184235E-10          
AR NOT1 2022 01 14 00 00  0.000000  2    0.428060496582E-07  0.199775345406E-10          
AR NRC1 2022 01 14 00 00  0.000000  2   -0.120443608335E-04  0.154260715876E-10          
AR NTUS 2022 01 14 00 00  0.000000  2    0.116388502142E-07  0.296197513356E-10          
AR NYA1 2022 01 14 00 00  0.000000  2   -0.289230175201E-07  0.183972158348E-10          
AR NYA2 2022 01 14 00 00  0.000000  2    0.121686119852E-07  0.209311281173E-10          
AR NYAL 2022 01 14 00 00  0.000000  2   -0.233670231560E-07  0.205451283088E-10          
AR OHI2 2022 01 14 00 00  0.000000  2   -0.186669034862E-03  0.181440724837E-10          
AR ONS1 2022 01 14 00 00  0.000000  2   -0.272134678250E-07  0.241638871117E-10          
AR ONSA 2022 01 14 00 00  0.000000  2   -0.699679642179E-04  0.193199470120E-10          
AR OUS2 2022 01 14 00 00  0.000000  2    0.124261875818E-08  0.164908081340E-10          
AR PADO 2022 01 14 00 00  0.000000  2    0.679906143831E-08  0.187781137262E-10          
AR PARC 2022 01 14 00 00  0.000000  2   -0.313690295426E-07  0.301426128302E-10          
AR PARK 2022 01 14 00 00  0.000000  2    0.484366324307E-06  0.313712912799E-10          
AR PDEL 2022 01 14 00 00  0.000000  2   -0.442262559751E-08  0.229691872189E-10          
AR PENC 2022 01 14 00 00  0.000000  2   -0.139975259320E-08  0.243084496604E-10          
AR PERT 2022 01 14 00 00  0.000000  2   -0.381334527913E-07  0.277183214912E-10          
AR PIE1 2022 01 14 00 00  0.000000  2   -0.180825205915E-04  0.206036614209E-10          
AR PIMO 2022 01 14 00 00  0.000000  2   -0.668036335099E-08  0.252348437827E-10          
AR POHN 2022 01 14 00 00  0.000000  2    0.239503580831E-03  0.481706167205E-10          
AR POL2 2022 01 14 00 00  0.000000  2   -0.617692253541E-09  0.180535623519E-10          
AR POLV 2022 01 14 00 00  0.000000  2    0.187500856011E-07  0.217879382416E-10          
AR POTS 2022 01 14 00 00  0.000000  2   -0.455254149698E-03  0.210236283790E-10          
AR POVE 2022 01 14 00 00  0.000000  2   -0.115350286745E-07  0.309461918749E-10          
AR PRDS 2022 01 14 00 00  0.000000  2    0.891364702492E-04  0.182552972640E-10          
AR PTBB 2022 01 14 00 00  0.000000  2    0.183955921361E-06  0.192128614073E-10          
AR PTVL 2022 01 14 00 00  0.000000  2   -0.452041679062E-07  0.385988293161E-10          
AR QAQ1 2022 01 14 00 00  0.000000  2    0.742366641864E-04  0.175325297311E-10          
AR QUIN 2022 01 14 00 00  0.000000  2    0.140993707923E-07  0.265974577353E-10          
AR RABT 2022 01 14 00 00  0.000000  2    0.725148997460E-08  0.174749837534E-10          
AR RAMO 2022 01 14 00 00  0.000000  2   -0.321197551060E-03  0.229882101198E-10          
AR REDU 2022 01 14 00 00  0.000000  2    0.122071883195E-06  0.255560760700E-10          
AR REUN 2022 01 14 00 00  0.000000  2   -0.320787614117E-03  0.291743091773E-10          
AR REYK 2022 01 14 00 00  0.000000  2    0.159679928749E-07  0.322718838732E-10          
AR RGDG 2022 01 14 00 00  0.000000  2   -0.340066649321E-07  0.195628132694E-10          
AR RIO2 2022 01 14 00 00  0.000000  2   -0.475584635603E-08  0.169631967877E-10          
AR RIOP 2022 01 14 00 00  0.000000  2    0.471377304850E-07  0.381063724718E-10          
AR SALU 2022 01 14 00 00  0.000000  2   -0.272982765425E-07  0.407486259265E-10          
AR SAMO 2022 01 14 00 00  0.000000  2   -0.245249809478E-07  0.450941332303E-10          
AR SANT 2022 01 14 00 00  0.000000  2   -0.491107153000E-03  0.296724201610E-10          
AR SAVO 2022 01 14 00 00  0.000000  2   -0.261095244337E-07  0.164656231063E-09          
AR SCH2 2022 01 14 00 00  0.000000  2    0.119048249321E-07  0.248590160567E-10          
AR SCOR 2022 01 14 00 00  0.000000  2   -0.409500711824E-03  0.191333320537E-10          
AR SCTB 2022 01 14 00 00  0.000000  2   -0.150700761162E-07  0.220938664438E-10          
AR SCUB 2022 01 14 00 00  0.000000  2    0.616448569708E-08  0.314527643553E-10          
AR SEYG 2022 01 14 00 00  0.000000  2   -0.140195882543E-03  0.780870273995E-10          
AR SGOC 2022 01 14 00 00  0.000000  2    0.238866135753E-07  0.371849830401E-10          
AR SMST 2022 01 14 00 00  0.000000  2   -0.110472012095E-07  0.410573353824E-10          
AR SOFI 2022 01 14 00 00  0.000000  2    0.165813985025E-07  0.319804127296E-10          
AR SPT0 2022 01 14 00 00  0.000000  2    0.227979698977E-06  0.165989121782E-10          
AR STFU 2022 01 14 00 00  0.000000  2    0.207216430212E-07  0.211011716250E-10          
AR STHL 2022 01 14 00 00  0.000000  2   -0.142880353966E-08  0.250947357877E-10          
AR STJ3 2022 01 14 00 00  0.000000  2   -0.439195586613E-03  0.202430379859E-10          
AR STJO 2022 01 14 00 00  0.000000  2    0.526018075118E-08  0.193081045406E-10          
AR STK2 2022 01 14 00 00  0.000000  2   -0.274605176987E-07  0.237039284198E-10          
AR STR2 2022 01 14 00 00  0.000000  2    0.364118782038E-03  0.376790546430E-10          
AR SUTH 2022 01 14 00 00  0.000000  2   -0.395116647103E-08  0.307284793537E-10          
AR SUTM 2022 01 14 00 00  0.000000  2    0.254860836212E-03  0.316878094176E-10          
AR SUWN 2022 01 14 00 00  0.000000  2   -0.217740546954E-07  0.198368929853E-10          
AR SYDN 2022 01 14 00 00  0.000000  2    0.296488880518E-05  0.319719126039E-10          
AR SYOG 2022 01 14 00 00  0.000000  2   -0.124139558124E-07  0.213624123623E-10          
AR TABL 2022 01 14 00 00  0.000000  2   -0.205721567200E-07  0.298052577485E-10          
AR TABV 2022 01 14 00 00  0.000000  2    0.101164201780E-07  0.218838922469E-10          
AR TASH 2022 01 14 00 00  0.000000  2    0.594230000944E-08  0.183454192173E-10          
AR TEHN 2022 01 14 00 00  0.000000  2   -0.271595194997E-08  0.302821216328E-10          
AR THTG 2022 01 14 00 00  0.000000  2    0.165587222637E-03  0.327756504696E-10          
AR THTI 2022 01 14 00 00  0.000000  2   -0.592598273346E-07  0.376108573123E-10          
AR THU2 2022 01 14 00 00  0.000000  2   -0.121502959572E-03  0.192232546122E-10          
AR TID1 2022 01 14 00 00  0.000000  2    0.284077816561E-04  0.359689103977E-10          
AR TIDB 2022 01 14 00 00  0.000000  2    0.960572098543E-03  0.455908423440E-10          
AR TIXG 2022 01 14 00 00  0.000000  2    0.751734655295E-06  0.295599904808E-10          
AR TLSE 2022 01 14 00 00  0.000000  2   -0.277724653372E-07  0.189728594792E-10          
AR TONG 2022 01 14 00 00  0.000000  2    0.222198516307E-03  0.498390037465E-10          
AR TOW2 2022 01 14 00 00  0.000000  2   -0.231148003182E-08  0.247642434287E-10          
AR TRO1 2022 01 14 00 00  0.000000  2    0.209737512159E-03  0.259120180261E-10          
AR TSEA 2022 01 14 00 00  0.000000  2   -0.279308807119E-08  0.242525421322E-10          
AR TSK2 2022 01 14 00 00  0.000000  2   -0.112653211304E-07  0.226870932997E-10          
AR TSKB 2022 01 14 00 00  0.000000  2   -0.345916473953E-07  0.293082629849E-10          
AR TUVA 2022 01 14 00 00  0.000000  2   -0.556857087212E-08  0.412908639714E-10          
AR TWTF 2022 01 14 00 00  0.000000  2    0.230428782910E-07  0.240090458700E-10          
AR UCAL 2022 01 14 00 00  0.000000  2   -0.270741293771E-07  0.258726629391E-10          
AR UCLU 2022 01 14 00 00  0.000000  2    0.188118802708E-07  0.206682624901E-10          
AR UFPR 2022 01 14 00 00  0.000000  2   -0.211248868640E-07  0.268633725543E-10          
AR ULAB 2022 01 14 00 00  0.000000  2   -0.394961577585E-03  0.221735920176E-10          
AR UNB3 2022 01 14 00 00  0.000000  2   -0.330221429919E-07  0.229296224596E-10          
AR UNBJ 2022 01 14 00 00  0.000000  2    0.267393677036E-03  0.236557723329E-10          
AR UNBN 2022 01 14 00 00  0.000000  2    0.243190434111E-07  0.347794958208E-10          
AR UNSA 2022 01 14 00 00  0.000000  2   -0.810559968929E-08  0.359121976097E-10          
AR URUM 2022 01 14 00 00  0.000000  2    0.434124034370E-03  0.348207902771E-10          
AR USN7 2022 01 14 00 00  0.000000  2    0.159570308013E-06  0.179246731687E-10          
AR USUD 2022 01 14 00 00  0.000000  2    0.325378475733E-05  0.252220573116E-10          
AR VALD 2022 01 14 00 00  0.000000  2   -0.340313349648E-08  0.163995315800E-10          
AR VILL 2022 01 14 00 00  0.000000  2   -0.491304863355E-05  0.218354432540E-10          
AR VIS0 2022 01 14 00 00  0.000000  2    0.585021686945E-04  0.188858693336E-10          
AR VOIM 2022 01 14 00 00  0.000000  2   -0.362172782830E-03  0.303692149965E-10          
AR WAB2 2022 01 14 00 00  0.000000  2    0.239884056233E-06  0.201481149906E-10          
AR WARK 2022 01 14 00 00  0.000000  2   -0.616593681202E-08  0.223436435827E-10          
AR WES2 2022 01 14 00 00  0.000000  2   -0.180614681505E-07  0.225146439183E-10          
AR WGTN 2022 01 14 00 00  0.000000  2   -0.668441297580E-08  0.208934633883E-10          
AR WHIT 2022 01 14 00 00  0.000000  2    0.400834067084E-08  0.198542638171E-10          
AR WILL 2022 01 14 00 00  0.000000  2    0.112892711359E-07  0.186032553395E-10          
AR WIND 2022 01 14 00 00  0.000000  2    0.261978397515E-03  0.339702982217E-10          
AR WROC 2022 01 14 00 00  0.000000  2    0.465954642123E-08  0.246844127166E-10          
AR WSRT 2022 01 14 00 00  0.000000  2    0.302110404430E-06  0.126072238478E-10          
AR WTZ2 2022 01 14 00 00  0.000000  2    0.145983786504E-06  0.191607513491E-10          
AR WTZ3 2022 01 14 00 00  0.000000  2    0.262618774088E-08  0.157375578817E-10          
AR WTZA 2022 01 14 00 00  0.000000  2    0.911613654736E-06  0.231798700382E-10          
AR WTZL 2022 01 14 00 00  0.000000  2    0.329888170957E-07  0.272369573678E-10          
AR WTZR 2022 01 14 00 00  0.000000  2    0.283775161287E-06  0.249544516614E-10          
AR WTZS 2022 01 14 00 00  0.000000  2    0.888055858127E-06  0.135192893695E-10          
AR WTZZ 2022 01 14 00 00  0.000000  2   -0.291231779497E-03  0.283424306538E-10          
AR WUH2 2022 01 14 00 00  0.000000  2    0.313855101709E-03  0.357186927680E-10          
AR WUHN 2022 01 14 00 00  0.000000  2   -0.216074310103E-07  0.285653036542E-10          
AR XMIS 2022 01 14 00 00  0.000000  2   -0.298436035251E-07  0.315124466829E-10          
AR YAKT 2022 01 14 00 00  0.000000  2   -0.127375536051E-03  0.317747854883E-10          
AR YAR2 2022 01 14 00 00  0.000000  2    0.795640402753E-04  0.252068828578E-10          
AR YAR3 2022 01 14 00 00  0.000000  2    0.553509257814E-09  0.211688027934E-10          
AR YARR 2022 01 14 00 00  0.000000  2   -0.397551330913E-08  0.174484635788E-10          
AR YEL2 2022 01 14 00 00  0.000000  2    0.142841593660E-03  0.200627784782E-10          
AR YELL 2022 01 14 00 00  0.000000  2    0.446157780978E-03  0.188518096811E-10          
AR YKRO 2022 01 14 00 00  0.000000  2   -0.902476009326E-08  0.348343095055E-10          
AR YSSK 2022 01 14 00 00  0.000000  2   -0.337176951257E-03  0.188654313812E-10          
AR ZAMB 2022 01 14 00 00  0.000000  2   -0.751328684651E-08  0.259689882118E-10          
AR ZECK 2022 01 14 00 00  0.000000  2   -0.422249609253E-03  0.235865542166E-10          
AR ZIM2 2022 01 14 00 00  0.000000  2   -0.213326575045E-07  0.202588176088E-10          
AR ZIM3 2022 01 14 00 00  0.000000  2    0.443424987039E-03  0.200539447135E-10          
AR ZIMM 2022 01 14 00 00  0.000000  2   -0.198376488234E-07  0.207775053423E-10          
AS G01  2022 01 14 00 00  0.000000  2    0.458004185873E-03  0.219675161218E-11          
AS G02  2022 01 14 00 00  0.000000  2   -0.648553381047E-03  0.252181224107E-11          
AS G03  2022 01 14 00 00  0.000000  2   -0.772830277749E-04  0.247377301400E-11          
AS G04  2022 01 14 00 00  0.000000  2   -0.195071784604E-03  0.259201491021E-11          
AS G05  2022 01 14 00 00  0.000000  2   -0.678049748832E-04  0.240636985435E-11          
AS G06  2022 01 14 00 00  0.000000  2    0.170155067585E-03  0.276284649074E-11          
AS G07  2022 01 14 00 00  0.000000  2    0.301479679746E-03  0.234876962303E-11          
AS G08  2022 01 14 00 00  0.000000  2   -0.520518542062E-04  0.216659535559E-11          
AS G09  2022 01 14 00 00  0.000000  2   -0.357995060485E-03  0.263703116377E-11          
AS G10  2022 01 14 00 00  0.000000  2   -0.292913533919E-03  0.219654973855E-11          
