     2.00           CLOCK DATA                              RINEX VERSION / TYPE
CCRNXC V5.3         AIUB                21-JAN-19 16:33     PGM / RUN BY / DATE 
CODE final GPS clock information for day 008, 2019, 3D-sol  COMMENT             
Clock information consistent with phase and P1/P2 code data COMMENT             
Satellite/receiver clock values at intervals of 30/300 sec  COMMENT             
High-rate (30 sec) clock interpolation based on phase data  COMMENT             
   GPS                                                      TIME SYSTEM ID      
    18                                                      LEAP SECONDS        
G CLKEST V5.3       IGS14                                   SYS / PCVS APPLIED  
R CLKEST V5.3       IGS14                                   SYS / PCVS APPLIED  
G CLKEST V5.3       CODE.BIA @ ftp.aiub.unibe.ch/CODE/      SYS / DCBS APPLIED  
R CLKEST V5.3       CODE.BIA @ ftp.aiub.unibe.ch/CODE/      SYS / DCBS APPLIED  
     2    AR    AS                                          # / TYPES OF DATA   
COD  Center for Orbit Determination in Europe               ANALYSIS CENTER     
     1                                                      # OF CLK REF        
PIE1 40456M001                           0.000000000000E+00 ANALYSIS CLK REF    
   316    IGS14                                             # OF SOLN STA / TRF 
PIE1 40456M001           -1640917096 -5014781190  3575447020SOLN STA NAME / NUM 
ABMF 97103M001            2919785785 -5383744972  1774604850SOLN STA NAME / NUM 
ABPO 33302M001            4097216554  4429119190 -2065771193SOLN STA NAME / NUM 
ADIS 31502M001            4913652584  3945922814   995383501SOLN STA NAME / NUM 
AIRA 21742S001           -3530185850  4118797213  3344036728SOLN STA NAME / NUM 
AJAC 10077M005            4696989252   723994742  4239678716SOLN STA NAME / NUM 
ALBH 40129M003           -2341333098 -3539049533  4745791264SOLN STA NAME / NUM 
ALGO 40104M002             918129148 -4346071316  4561977906SOLN STA NAME / NUM 
ALIC 50137M001           -4052052700  4212835987 -2545104638SOLN STA NAME / NUM 
ALRT 40162M001             388042381  -740382454  6302001981SOLN STA NAME / NUM 
AMU2 66040M002                 40444     -187153 -6359569543SOLN STA NAME / NUM 
ANKR 20805M002            4121948414  2652187860  4069023861SOLN STA NAME / NUM 
AREG 42202M008            1942816415 -5804077159 -1796884360SOLN STA NAME / NUM 
AREQ 42202M005            1942826275 -5804070354 -1796894122SOLN STA NAME / NUM 
ARTU 12362M001            1843956376  3016203234  5291261774SOLN STA NAME / NUM 
ASCG 30602M004            6121151570 -1563978944  -872615312SOLN STA NAME / NUM 
AUCK 50209M001           -5105681511   461563997 -3782181032SOLN STA NAME / NUM 
AXPV 10057M001            4614666713   430786755  4367411698SOLN STA NAME / NUM 
AZGB 49541S001           -1890728096 -4984856373  3491254534SOLN STA NAME / NUM 
BADG 12338M002            -838282042  3865777324  4987624577SOLN STA NAME / NUM 
BAKE 40152M001            -289834275 -2756501166  5725162377SOLN STA NAME / NUM 
BAKO 23101M002           -1836969452  6065616951  -716257922SOLN STA NAME / NUM 
BARH 49927S001            1693644622 -4239067592  4439567314SOLN STA NAME / NUM 
BBYS 11514M001            3980358559  1382292321  4772772081SOLN STA NAME / NUM 
BJCO 32701M001            6333076449   270973752   704552253SOLN STA NAME / NUM 
BJFS 21601M001           -2148744524  4426641166  4044655810SOLN STA NAME / NUM 
BNDY 50185M001           -5125977502  2688801254 -2669890262SOLN STA NAME / NUM 
BOAV 41636M001            3117452184 -5555487868   314480972SOLN STA NAME / NUM 
BOGT 41901M001            1744398881 -6116037032   512731899SOLN STA NAME / NUM 
BOR1 12205M002            3738358217  1148173928  5021815890SOLN STA NAME / NUM 
BRAZ 41606M001            4115014071 -4550641634 -1741443784SOLN STA NAME / NUM 
BREW 40473M001           -2112007348 -3705351823  4726827040SOLN STA NAME / NUM 
BRMU 42501S004            2304703286 -4874817171  3395187052SOLN STA NAME / NUM 
BRST 10004M004            4231162409  -332746431  4745131062SOLN STA NAME / NUM 
BRUX 13101M010            4027881382   306998727  4919499006SOLN STA NAME / NUM 
BSHM 20705M001            4395951167  3080707231  3433498268SOLN STA NAME / NUM 
BZRG 12751M001            4312657277   864634905  4603844608SOLN STA NAME / NUM 
CAGS 40147M001            1096348827 -4335060655  4533255257SOLN STA NAME / NUM 
CAS1 66011M001            -901776133  2409383232 -5816748532SOLN STA NAME / NUM 
CCJ2 21732M002           -4490605168  3483895004  2884928314SOLN STA NAME / NUM 
CEDU 50138M001           -3753473156  3912741028 -3347959744SOLN STA NAME / NUM 
CEFE 41637M001            4562488509 -3871935893 -2200001343SOLN STA NAME / NUM 
CHOF 21788M001           -3946217151  3366689454  3698971767SOLN STA NAME / NUM 
CHPG 41609M004            4163476686 -4163821987 -2444511095SOLN STA NAME / NUM 
CHPI 41609M003            4164613907 -4162456978 -2445028643SOLN STA NAME / NUM 
CHTI 50242M001           -4607856200  -272375390 -4386954196SOLN STA NAME / NUM 
CHUR 40128M002            -236439128 -3307616943  5430049327SOLN STA NAME / NUM 
COCO 50127M001            -741951031  6190961714 -1337767428SOLN STA NAME / NUM 
CORD 41511M001            2345503861 -4910842919 -3316365233SOLN STA NAME / NUM 
CPVG 39601M001            5626883442 -2380932368  1824483978SOLN STA NAME / NUM 
CPXF 49642S001           -2332869779 -3696442617  4630011539SOLN STA NAME / NUM 
CRO1 43201M001            2607771331 -5488076569  1932767962SOLN STA NAME / NUM 
CUT0 59945M001           -2364337619  4870285650 -3360809478SOLN STA NAME / NUM 
DAEJ 23902M002           -3120042389  4084614690  3764026794SOLN STA NAME / NUM 
DARW 50134M001           -4091359576  4684606431 -1408579177SOLN STA NAME / NUM 
DAV1 66010M001             486854585  2285099176 -5914955714SOLN STA NAME / NUM 
DGAR 30802M001            1916268812  6029977712  -801719444SOLN STA NAME / NUM 
DHLG 49904M001           -2319099548 -4799846379  3490090428SOLN STA NAME / NUM 
DLF1 13502M009            3924697631   301125252  5001905317SOLN STA NAME / NUM 
DOUR 13113M001            4086777943   328452222  4869782767SOLN STA NAME / NUM 
DRAO 40105M002           -2059165015 -3621108404  4814432236SOLN STA NAME / NUM 
DUBO 40137M001            -417603938 -4064529838  4881432127SOLN STA NAME / NUM 
DYNG 12602M006            4595220029  2039434164  3912625909SOLN STA NAME / NUM 
EBRE 13410M001            4833519985    41537383  4147461707SOLN STA NAME / NUM 
FAA1 92201M012           -5247393602 -3076866466 -1911521056SOLN STA NAME / NUM 
FAIR 40408M001           -2281621952 -1453595961  5756961711SOLN STA NAME / NUM 
FLIN 40135M001            -766174826 -3611375359  5184056193SOLN STA NAME / NUM 
FLRS 31907M001            4221529925 -2549242325  4031398429SOLN STA NAME / NUM 
FRDN 40146M001            1760542531 -4080068017  4560178634SOLN STA NAME / NUM 
FTNA 92902S002           -6178322494  -202694575 -1566024228SOLN STA NAME / NUM 
FUNC 13911S001            5143339213 -1563412523  3421191773SOLN STA NAME / NUM 
GANP 11515M001            3929181293  1455236948  4793654034SOLN STA NAME / NUM 
GLPS 42005M002             -33800947 -6377516518   -82154237SOLN STA NAME / NUM 
GLSV 12356M001            3512888679  2068980085  4888903307SOLN STA NAME / NUM 
GMSD 21749S002           -3607665470  4147867917  3223716970SOLN STA NAME / NUM 
GODE 40451M123            1130773534 -4831253570  3994200457SOLN STA NAME / NUM 
GODZ 40451M123            1130773534 -4831253570  3994200457SOLN STA NAME / NUM 
GOL2 40405S031           -2353614541 -4641385239  3676976385SOLN STA NAME / NUM 
GOP6 11502M006            3979319096  1050312376  4857064708SOLN STA NAME / NUM 
GOPE 11502M002            3979315901  1050312708  4857067244SOLN STA NAME / NUM 
GRAC 10002M010            4581708152   556132894  4389341430SOLN STA NAME / NUM 
GRAS 10002M006            4581690705   556115099  4389360953SOLN STA NAME / NUM 
GRAZ 11001M002            4194423576  1162702942  4647245559SOLN STA NAME / NUM 
GUAM 50501M002           -5071312677  3568363631  1488904402SOLN STA NAME / NUM 
GUAT 40901S001             -56063529 -6174978641  1596665293SOLN STA NAME / NUM 
GUUG 82301M001           -5070465163  3576460283  1472093833SOLN STA NAME / NUM 
HARB 30302M009            5084657616  2670325386 -2768480919SOLN STA NAME / NUM 
HERS 13212M007            4033469908    23673120  4924301440SOLN STA NAME / NUM 
HERT 13212M010            4033460734    23538034  4924318393SOLN STA NAME / NUM 
HLFX 40120M001            2018905541 -4069070516  4462415500SOLN STA NAME / NUM 
HNLC 49970S001           -5506798909 -2240048657  2302720874SOLN STA NAME / NUM 
HNPT 49913S001            1196626131 -4846358489  3956723141SOLN STA NAME / NUM 
HOB2 50116M004           -3950072211  2522415355 -4311637447SOLN STA NAME / NUM 
HOFN 10204M002            2679689931  -727951001  5722789540SOLN STA NAME / NUM 
HOLB 40130M001           -2503040731 -3188233331  4908701418SOLN STA NAME / NUM 
HRAG 30302M010            5085418043  2668226569 -2768758017SOLN STA NAME / NUM 
HRAO 30302M004            5085352449  2668396113 -2768731306SOLN STA NAME / NUM 
HYDE 22307M001            1208443988  5966805987  1897077350SOLN STA NAME / NUM 
IDDR 49451M001           -1662651856 -4306563917  4389045264SOLN STA NAME / NUM 
IENG 12724S001            4476537222   600431696  4488761495SOLN STA NAME / NUM 
IISC 22306M002            1337935850  6070317121  1427877267SOLN STA NAME / NUM 
IMPZ 41615M001            4289656377 -4680884988  -606347083SOLN STA NAME / NUM 
INEG 40507M001           -1260435705 -5788546762  2360339871SOLN STA NAME / NUM 
IQAL 40194M001            1036000841 -2631455596  5697819747SOLN STA NAME / NUM 
IRKJ 12313M002            -968328948  3794426510  5018167201SOLN STA NAME / NUM 
IRKM 12313M001            -968332753  3794425401  5018167680SOLN STA NAME / NUM 
ISBA 20308M001            3808364566  3734430204  3485693702SOLN STA NAME / NUM 
JFNG 21602M006           -2279829053  5004706466  3219777396SOLN STA NAME / NUM 
JOG2 23109M002           -2200208073  5924895502  -855929223SOLN STA NAME / NUM 
JOZ2 12204M002            3664880320  1409190810  5009618593SOLN STA NAME / NUM 
JOZE 12204M001            3664939905  1409154075  5009571494SOLN STA NAME / NUM 
KARR 50139M001           -2713833232  5303935114 -2269513806SOLN STA NAME / NUM 
KERG 91201M002            1406337205  3918161095 -4816167385SOLN STA NAME / NUM 
KIR0 10422M001            2248122963   865686834  5886425949SOLN STA NAME / NUM 
KIR8 10422M002            2248126833   865685766  5886424664SOLN STA NAME / NUM 
KIRU 10403M002            2251420560   862817369  5885476858SOLN STA NAME / NUM 
KIT3 12334M001            1944944769  4556652342  4004326052SOLN STA NAME / NUM 
KLOP 14214M002            4041875232   620655522  4878636966SOLN STA NAME / NUM 
KOKB 40424M004           -5543838322 -2054585872  2387810414SOLN STA NAME / NUM 
KOKV 40424M004           -5543838325 -2054585873  2387810416SOLN STA NAME / NUM 
KOUC 92727S001           -5751223115  1617967257 -2225743228SOLN STA NAME / NUM 
KOUG 97301M402            3855263307 -5049732014   563040520SOLN STA NAME / NUM 
KOUR 97301M210            3839591330 -5059567588   579957224SOLN STA NAME / NUM 
KRGG 91201M007            1406336183  3918154599 -4816172879SOLN STA NAME / NUM 
KZN2 12374M001            2352345827  2717466562  5251459210SOLN STA NAME / NUM 
LAMA 12209M001            3524522667  1329693833  5129846467SOLN STA NAME / NUM 
LAUT 50804M002           -6075194674   270923764 -1917189079SOLN STA NAME / NUM 
LEIJ 14267M001            3898736166   855345484  4958372580SOLN STA NAME / NUM 
LHAZ 21613M002            -106942094  5549269781  3139215207SOLN STA NAME / NUM 
LLAG 31302M003            5384906429 -1576770570  3023828082SOLN STA NAME / NUM 
LMMF 97205M001            2993387393 -5399363840  1596748153SOLN STA NAME / NUM 
LPAL 81701M001            5326646222 -1719826007  3052043904SOLN STA NAME / NUM 
LPGS 41510M001            2780102999 -4437419027 -3629404373SOLN STA NAME / NUM 
M0SE 12772M001            4642432258  1028629681  4236854403SOLN STA NAME / NUM 
MAC1 50135M001           -3464038870  1334173200 -5169223900SOLN STA NAME / NUM 
MAD2 13407S012            4849202215  -360328693  4114913361SOLN STA NAME / NUM 
MADR 13407S012            4849202217  -360328694  4114913363SOLN STA NAME / NUM 
MAG0 12354M001           -2825810569  1581232922  5477005337SOLN STA NAME / NUM 
MAJU 51501M001           -6257572134   950333418   785215572SOLN STA NAME / NUM 
MANA 41201S001             407981939 -6222925651  1333529090SOLN STA NAME / NUM 
MAO0 40445M005           -5466067144 -2404332810  2242123304SOLN STA NAME / NUM 
MAR6 10405M002            2998189227   931451970  5533398862SOLN STA NAME / NUM 
MAR7 10405M003            2998198259   931450095  5533393014SOLN STA NAME / NUM 
MARS 10073M008            4630532569   433946575  4350142884SOLN STA NAME / NUM 
MAS1 31303M002            5439192150 -1522055230  2953455057SOLN STA NAME / NUM 
MAT1 12734M009            4641951185  1393053925  4133281067SOLN STA NAME / NUM 
MATE 12734M008            4641949291  1393045691  4133287665SOLN STA NAME / NUM 
MAUI 40445S008           -5466069069 -2404327207  2242127892SOLN STA NAME / NUM 
MAW1 66004M001            1111287211  2168911194 -5874493599SOLN STA NAME / NUM 
MAYG 90101M001            4379104382  4418744592 -1401897818SOLN STA NAME / NUM 
MCM4 66001M003           -1311703045   310814834 -6213255144SOLN STA NAME / NUM 
MDO1 40442M012           -1329998948 -5328393358  3236504089SOLN STA NAME / NUM 
MDVJ 12309M005            2845455780  2160954411  5265993310SOLN STA NAME / NUM 
MEDI 12711M003            4461400484   919593841  4449504925SOLN STA NAME / NUM 
METG 10503M002            2890652373  1310295643  5513958938SOLN STA NAME / NUM 
METS 10503S011            2892570545  1311843644  5512634263SOLN STA NAME / NUM 
MGUE 41558M001            1823327818 -4850352536 -3709085452SOLN STA NAME / NUM 
MIZU 21702M002           -3857170888  3108692913  4004040230SOLN STA NAME / NUM 
MKEA 40477M001           -5464105378 -2495165498  2148291630SOLN STA NAME / NUM 
MOBJ 12365M002            2936424346  2178374215  5208858526SOLN STA NAME / NUM 
MOBK 12365M002            2936424346  2178374214  5208858525SOLN STA NAME / NUM 
MOBN 12365M001            2936431749  2178364722  5208858329SOLN STA NAME / NUM 
MOBS 50182M001           -4130636725  2894953135 -3890530286SOLN STA NAME / NUM 
MONP 40497M004           -2386247541 -4802359017  3444902441SOLN STA NAME / NUM 
MORP 13299S001            3645667651  -107277016  5215053659SOLN STA NAME / NUM 
MQZG 50214M001           -4580569785   590466309 -4384379703SOLN STA NAME / NUM 
MRO1 59913M001           -2556630000  5097138281 -2848384834SOLN STA NAME / NUM 
MTKA 21741S002           -3947763154  3364399474  3699428529SOLN STA NAME / NUM 
MYVA 10205M001            2524224488  -766501939  5787949743SOLN STA NAME / NUM 
NAIN 40164M001            1671836400 -3103473324  5297671346SOLN STA NAME / NUM 
NANO 40138M001           -2335726962 -3451608355  4812009888SOLN STA NAME / NUM 
NAUR 50701M001           -6212554908  1442787603   -61006345SOLN STA NAME / NUM 
NICO 14302M001            4359415456  2874117220  3650778004SOLN STA NAME / NUM 
NIST 49507M002           -1288398516 -4721696927  4078625351SOLN STA NAME / NUM 
NIUM 50210M001           -5937160901 -1054675227 -2071386025SOLN STA NAME / NUM 
NKLG 32809M002            6287385711  1071574839    39133177SOLN STA NAME / NUM 
NNOR 50181M001           -2414152335  4907778628 -3270644250SOLN STA NAME / NUM 
NOT1 12717M004            4934545976  1321265254  3806456329SOLN STA NAME / NUM 
NOVM 12367M002             452260730  3635877595  5203453323SOLN STA NAME / NUM 
NRC1 40114M001            1112776975 -4341475897  4522955873SOLN STA NAME / NUM 
NRIL 12364M001              64536877  2253782911  5946363525SOLN STA NAME / NUM 
NRMD 92701M005           -5743538104  1380503887 -2397896057SOLN STA NAME / NUM 
NTUS 22601M001           -1508023204  6195576544   148799330SOLN STA NAME / NUM 
NYA1 10317M003            1202433636   252632393  6237772743SOLN STA NAME / NUM 
NYA2 10317M008            1202379289   252474657  6237786567SOLN STA NAME / NUM 
NYAL 10317M001            1202430330   252626809  6237767772SOLN STA NAME / NUM 
OHI2 66008M005            1525812130 -2432478229 -5676165549SOLN STA NAME / NUM 
OHI3 66008M006            1525809298 -2432478740 -5676166243SOLN STA NAME / NUM 
ONS1 10402M007            3370666710   711819123  5349788232SOLN STA NAME / NUM 
ONSA 10402M004            3370658335   711877339  5349787086SOLN STA NAME / NUM 
OPMT 10001S006            4202777183   171368244  4778660340SOLN STA NAME / NUM 
OUS2 50212M002           -4387891049   733420938 -4555176044SOLN STA NAME / NUM 
PADO 12750S001            4388881782   924567712  4519588885SOLN STA NAME / NUM 
PARK 50108M001           -4554255181  2816652447 -3454059750SOLN STA NAME / NUM 
PBRI 22308M001            -295635915  6240848786  1278178539SOLN STA NAME / NUM 
PDEL 31906M004            4551595891 -2186892898  3883411007SOLN STA NAME / NUM 
PENC 11206M006            4052449222  1417681366  4701407241SOLN STA NAME / NUM 
PERT 50133M001           -2368687996  4881316691 -3341795026SOLN STA NAME / NUM 
PETS 12355M003           -3580828389  1399698231  5072185035SOLN STA NAME / NUM 
PFA2 11005M003            4253559684   733545198  4681452986SOLN STA NAME / NUM 
PIMO 22003M001           -3186293583  5286624416  1601158390SOLN STA NAME / NUM 
POHN 51601M001           -5879158287  2350292705   767748585SOLN STA NAME / NUM 
POLV 12336M001            3411557050  2348464157  4834396983SOLN STA NAME / NUM 
POTS 14106M003            3800689408   882077608  5028791451SOLN STA NAME / NUM 
POVE 41628M001            2774265585 -5662060176  -959415758SOLN STA NAME / NUM 
PRDS 40124M001           -1659603211 -3676725786  4925493459SOLN STA NAME / NUM 
PTAG 22006M005           -3184318640  5291065550  1590418268SOLN STA NAME / NUM 
PTBB 14234M001            3844059741   709661543  5023129688SOLN STA NAME / NUM 
QAQ1 43007M001            2170941843 -2251830030  5539988494SOLN STA NAME / NUM 
QUIN 40433M004           -2517231427 -4198594970  4076531169SOLN STA NAME / NUM 
RABT 35001M002            5255617554  -631745445  3546322753SOLN STA NAME / NUM 
RAMO 20703S001            4514721560  3133508037  3228024954SOLN STA NAME / NUM 
RBAY 30315M001            4739765768  2970758544 -3054077458SOLN STA NAME / NUM 
REDU 13102M001            4091423146   368380823  4863179925SOLN STA NAME / NUM 
REUN 97401M003            3364098925  4907944639 -2293466687SOLN STA NAME / NUM 
REYK 10202M001            2587384004 -1043033551  5716564134SOLN STA NAME / NUM 
RGDG 41507M007            1429870451 -3495334829 -5122722971SOLN STA NAME / NUM 
RIO2 41507M006            1429907891 -3495354927 -5122698540SOLN STA NAME / NUM 
RIOP 42006M001            1255144952 -6253609440  -182569698SOLN STA NAME / NUM 
ROTH 66007M003             909246230 -2264764184 -5873056292SOLN STA NAME / NUM 
SALU 41640M001            4566947856 -4443098554  -286674562SOLN STA NAME / NUM 
SAMO 50603M001           -6129702388  -890028574 -1516806809SOLN STA NAME / NUM 
SANT 41705M003            1769693427 -5044574288 -3468320893SOLN STA NAME / NUM 
SASS 14281M001            3606145848   875303559  5170194069SOLN STA NAME / NUM 
SAVO 41643M001            4870283751 -3864605370 -1418872382SOLN STA NAME / NUM 
SCH2 40133M002            1448636533 -3385243784  5191047213SOLN STA NAME / NUM 
SCOR 43006M002            1982095787  -798821018  5989464654SOLN STA NAME / NUM 
SCRZ 41801M001            2743005916 -5420745271 -1937116995SOLN STA NAME / NUM 
SCTB 66071M001           -1311028638   308512490 -6213390870SOLN STA NAME / NUM 
SCUB 40701M001            1474538006 -5811243267  2168958894SOLN STA NAME / NUM 
SEYG 39801M004            3597835911  5240884100  -516780963SOLN STA NAME / NUM 
SFER 13402M004            5105518873  -555145624  3769803568SOLN STA NAME / NUM 
SGOC 23501M003            1113279721  6233644311   760277192SOLN STA NAME / NUM 
SHAO 21605M002           -2831733936  4675665765  3275369258SOLN STA NAME / NUM 
SOFI 11101M002            4319371845  1868688037  4292064052SOLN STA NAME / NUM 
SPT0 10425M001            3328984334   761910469  5369033856SOLN STA NAME / NUM 
STFU 49430S001           -2700404364 -4292605292  3855137516SOLN STA NAME / NUM 
STHL 30606M003            6104817261  -605827827 -1740738697SOLN STA NAME / NUM 
STJ3 40101M005            2612588541 -3426820648  4686773811SOLN STA NAME / NUM 
STJO 40101M001            2612630840 -3426807047  4686757991SOLN STA NAME / NUM 
STK2 21731S004           -3642161452  2861487863  4370351231SOLN STA NAME / NUM 
STR2 50119M001           -4467075215  2683011851 -3667007096SOLN STA NAME / NUM 
SUTH 30314M002            5041274904  1916054426 -3397075718SOLN STA NAME / NUM 
SUTM 30314M004            5041190289  1916067392 -3397189169SOLN STA NAME / NUM 
SUWN 23903M001           -3062023260  4055447808  3841818123SOLN STA NAME / NUM 
SYDN 50124M003           -4648240831  2560636446 -3526317835SOLN STA NAME / NUM 
SYOG 66006S002            1766207933  1460290318 -5932297661SOLN STA NAME / NUM 
TABL 49901M001           -2448550373 -4668098880  3582741090SOLN STA NAME / NUM 
TABV 49901M001           -2448550373 -4668098881  3582741090SOLN STA NAME / NUM 
TASH 12327M001            1695944824  4487138653  4190140749SOLN STA NAME / NUM 
THTG 92201M016           -5246415284 -3077260627 -1913841794SOLN STA NAME / NUM 
THTI 92201M009           -5246416106 -3077259296 -1913841745SOLN STA NAME / NUM 
THU2 43001M002             538093233 -1389088120  6180979342SOLN STA NAME / NUM 
THU3 43001M002             538093233 -1389088121  6180979345SOLN STA NAME / NUM 
TID1 50103M108           -4460996930  2682557086 -3674442681SOLN STA NAME / NUM 
TIDB 50103M108           -4460996930  2682557086 -3674442681SOLN STA NAME / NUM 
TIXG 12360M001           -1264873478  1569455756  6031003393SOLN STA NAME / NUM 
TIXI 12360M001           -1264873477  1569455756  6031003392SOLN STA NAME / NUM 
TLSE 10003M009            4627851654   119640286  4372993708SOLN STA NAME / NUM 
TN22 49450M001             419472915 -5188697503  3673388658SOLN STA NAME / NUM 
TONG 50902M001           -5930303526  -500148645 -2286366264SOLN STA NAME / NUM 
TOW2 50140M001           -5054583367  3275504121 -2091538516SOLN STA NAME / NUM 
TRO1 10302M006            2102928237   721619594  5958196374SOLN STA NAME / NUM 
TSEA 49448S001           -2666155462 -1545828446  5565470205SOLN STA NAME / NUM 
TSK2 21730S010           -3957184891  3310231004  3737703841SOLN STA NAME / NUM 
TSKB 21730S005           -3957200007  3310198999  3737711512SOLN STA NAME / NUM 
TUVA 51101M001           -6307543798    88455296  -939277622SOLN STA NAME / NUM 
TWTF 23603S002           -2994428572  4951309065  2674496719SOLN STA NAME / NUM 
TXES 49512M001            -644343122 -5353724674  3395215164SOLN STA NAME / NUM 
UCAL 49106M001           -1641945131 -3664803804  4940009245SOLN STA NAME / NUM 
UCLU 40140M001           -2440669150 -3416437110  4785136794SOLN STA NAME / NUM 
UFPR 41610M002            3763751685 -4365113937 -2724404492SOLN STA NAME / NUM 
ULAB 24201M001           -1257408961  4099404322  4707992565SOLN STA NAME / NUM 
UNB3 40146M002            1761287888 -4078238514  4561417799SOLN STA NAME / NUM 
UNBD 40146M003            1761305762 -4078238532  4561411326SOLN STA NAME / NUM 
UNBJ 40146M002            1761287888 -4078238514  4561417799SOLN STA NAME / NUM 
UNBN 40146M002            1761287888 -4078238514  4561417799SOLN STA NAME / NUM 
UNSA 41514M001            2412830476 -5271936797 -2652208890SOLN STA NAME / NUM 
UNTR 12785M001            4590764257  1032367093  4291666660SOLN STA NAME / NUM 
URUM 21612M001             193030202  4606851278  4393311515SOLN STA NAME / NUM 
USN7 40451S009            1112162076 -4842854664  3985497073SOLN STA NAME / NUM 
VALD 40156M001             919075568 -4167766356  4724323643SOLN STA NAME / NUM 
VILL 13406M001            4849833558  -335048757  4116015108SOLN STA NAME / NUM 
VIS0 10423M001            3246470033  1077900715  5365278239SOLN STA NAME / NUM 
VOIM 33303M001            4054014100  4316070332 -2365223939SOLN STA NAME / NUM 
VTSP 49449M001            1400223910 -4434888822  4350424864SOLN STA NAME / NUM 
WAB1 14014M001            4327317411   566952048  4636427151SOLN STA NAME / NUM 
WAB2 14014M002            4327318197   566955978  4636425943SOLN STA NAME / NUM 
WARK 50243M001           -5115333453   477886877 -3767147141SOLN STA NAME / NUM 
WARN 14277M002            3658785576   784471095  5147870715SOLN STA NAME / NUM 
WES2 40440S020            1492233026 -4458089504  4296046092SOLN STA NAME / NUM 
WGTN 50208M003           -4777269830   434270530 -4189483998SOLN STA NAME / NUM 
WHIT 40136M001           -2218338185 -2201205124  5543057478SOLN STA NAME / NUM 
WILL 40134M001           -2084258389 -3313873004  5019852966SOLN STA NAME / NUM 
WIND 31101M001            5633708802  1732018011 -2433985521SOLN STA NAME / NUM 
WROC 12217M001            3835751060  1177250181  4941605373SOLN STA NAME / NUM 
WSRT 13506M005            3828735643   443305178  5064884848SOLN STA NAME / NUM 
WTZ2 14201M015            4075534962   931822567  4801609151SOLN STA NAME / NUM 
WTZA 14201M013            4075578139   931853036  4801570171SOLN STA NAME / NUM 
WTZR 14201M010            4075580321   931854035  4801568267SOLN STA NAME / NUM 
WTZS 14201M015            4075534962   931822567  4801609151SOLN STA NAME / NUM 
WUH2 21602M007           -2267750093  5009154523  3221294405SOLN STA NAME / NUM 
XMIS 50183M001           -1696344715  6039590002 -1149275135SOLN STA NAME / NUM 
YAKT 12353M002           -1914999247  2308241450  5610225481SOLN STA NAME / NUM 
YAR2 50107M004           -2389026574  5043317057 -3078529609SOLN STA NAME / NUM 
YAR3 50107M008           -2389043726  5043313580 -3078524442SOLN STA NAME / NUM 
YARR 50107M006           -2389025537  5043315537 -3078533029SOLN STA NAME / NUM 
YCBA 41803M001            2623233425 -5303044822 -2376415902SOLN STA NAME / NUM 
YEL2 40127M006           -1224442125 -2689174684  5633660370SOLN STA NAME / NUM 
YELL 40127M003           -1224452945 -2689216199  5633638289SOLN STA NAME / NUM 
YSSK 12329M003           -3465321175  2638269290  4644085305SOLN STA NAME / NUM 
ZECK 12351M001            3451174393  3060335633  4391955776SOLN STA NAME / NUM 
ZIM2 14001M008            4331299677   567537573  4633133873SOLN STA NAME / NUM 
ZIM3 14001M008            4331299677   567537573  4633133873SOLN STA NAME / NUM 
ZIMJ 14001M006            4331293722   567542380  4633135878SOLN STA NAME / NUM 
ZIMM 14001M004            4331296867   567556128  4633134094SOLN STA NAME / NUM 
    52                                                      # OF SOLN SATS      
G01 G02 G03 G05 G06 G07 G08 G09 G10 G11 G12 G13 G14 G15 G16 PRN LIST            
G17 G18 G19 G20 G21 G22 G23 G24 G25 G26 G27 G28 G29 G30 G31 PRN LIST            
G32 R01 R02 R03 R04 R05 R07 R08 R09 R10 R11 R13 R14 R15 R17 PRN LIST            
R18 R19 R20 R21 R22 R23 R24                                 PRN LIST            
                                                            END OF HEADER       
AR PIE1 2019 01 08 00 00  0.000000  2   -0.434274916279E-03  0.162031620104E-10          
AR ABPO 2019 01 08 00 00  0.000000  2   -0.231939566106E-08  0.275146079341E-10          
AR ADIS 2019 01 08 00 00  0.000000  2   -0.305546118027E-04  0.536782243249E-10          
AR AIRA 2019 01 08 00 00  0.000000  2   -0.354543556625E-07  0.311366421694E-10          
AR AJAC 2019 01 08 00 00  0.000000  2    0.396896037843E-07  0.176420309707E-10          
AR ALBH 2019 01 08 00 00  0.000000  2    0.211516478814E-07  0.194078525663E-10          
AR ALGO 2019 01 08 00 00  0.000000  2   -0.972405511358E-05  0.181192655405E-10          
AR ALIC 2019 01 08 00 00  0.000000  2    0.365569197002E-07  0.240442404019E-10          
AR ALRT 2019 01 08 00 00  0.000000  2   -0.416285980427E-07  0.209507400776E-10          
AR AMU2 2019 01 08 00 00  0.000000  2   -0.375019541267E-07  0.244720974105E-10          
AR ANKR 2019 01 08 00 00  0.000000  2    0.193220324943E-07  0.206066579244E-10          
AR AREG 2019 01 08 00 00  0.000000  2    0.137131577666E-03  0.189207625090E-10          
AR AREQ 2019 01 08 00 00  0.000000  2   -0.159929237846E-03  0.218102247518E-10          
AR ARTU 2019 01 08 00 00  0.000000  2   -0.374772488347E-03  0.200141246927E-10          
AR ASCG 2019 01 08 00 00  0.000000  2   -0.236124614882E-07  0.338079876283E-10          
AR AUCK 2019 01 08 00 00  0.000000  2   -0.120448765820E-07  0.436886536798E-10          
AR AXPV 2019 01 08 00 00  0.000000  2   -0.215457800007E-07  0.305633924809E-10          
AR AZGB 2019 01 08 00 00  0.000000  2   -0.145737612649E-07  0.297598700147E-10          
AR BADG 2019 01 08 00 00  0.000000  2   -0.150470044987E-03  0.284599369527E-10          
AR BAKE 2019 01 08 00 00  0.000000  2    0.126049700936E-07  0.205484533385E-10          
AR BAKO 2019 01 08 00 00  0.000000  2    0.355713135993E-08  0.805493636483E-10          
AR BARH 2019 01 08 00 00  0.000000  2   -0.583005739970E-08  0.242941304895E-10          
AR BBYS 2019 01 08 00 00  0.000000  2   -0.292238329621E-07  0.185367590851E-10          
AR BJCO 2019 01 08 00 00  0.000000  2   -0.295020895724E-07  0.261951101415E-10          
AR BJFS 2019 01 08 00 00  0.000000  2   -0.284550874822E-07  0.205619882157E-10          
AR BNDY 2019 01 08 00 00  0.000000  2   -0.362357817250E-07  0.386083151953E-10          
AR BOAV 2019 01 08 00 00  0.000000  2   -0.132380595429E-07  0.107280794626E-09          
AR BOR1 2019 01 08 00 00  0.000000  2   -0.255527994325E-07  0.225853803525E-10          
AR BRAZ 2019 01 08 00 00  0.000000  2   -0.291666378632E-07  0.333350645162E-10          
AR BREW 2019 01 08 00 00  0.000000  2    0.328718420891E-03  0.155718419408E-10          
AR BRMU 2019 01 08 00 00  0.000000  2    0.182478205391E-08  0.191621983232E-10          
AR BRST 2019 01 08 00 00  0.000000  2   -0.212972920262E-07  0.280614578449E-10          
AR BRUX 2019 01 08 00 00  0.000000  2    0.141211349263E-06  0.144354042253E-10          
AR BSHM 2019 01 08 00 00  0.000000  2    0.206500074896E-07  0.452677581496E-10          
AR BZRG 2019 01 08 00 00  0.000000  2    0.398672251312E-07  0.234721041132E-10          
AR CAGS 2019 01 08 00 00  0.000000  2   -0.240981722063E-07  0.346438939411E-10          
AR CAS1 2019 01 08 00 00  0.000000  2   -0.343900286474E-07  0.198933663055E-10          
AR CCJ2 2019 01 08 00 00  0.000000  2   -0.255129998799E-07  0.249343049699E-10          
AR CEDU 2019 01 08 00 00  0.000000  2   -0.164463340351E-03  0.185979517913E-10          
AR CEFE 2019 01 08 00 00  0.000000  2   -0.445128226440E-08  0.415887797769E-10          
AR CHOF 2019 01 08 00 00  0.000000  2    0.102884136913E-03  0.218585776887E-10          
AR CHPG 2019 01 08 00 00  0.000000  2   -0.306575068685E-07  0.352775047699E-10          
AR CHPI 2019 01 08 00 00  0.000000  2   -0.176538649509E-03  0.303451052923E-10          
AR CHTI 2019 01 08 00 00  0.000000  2   -0.142895448510E-07  0.426829960552E-10          
AR CHUR 2019 01 08 00 00  0.000000  2   -0.104809762018E-03  0.170452035215E-10          
AR COCO 2019 01 08 00 00  0.000000  2   -0.963775075761E-08  0.257692936185E-10          
AR CORD 2019 01 08 00 00  0.000000  2   -0.119147749842E-07  0.338497926902E-10          
AR CPVG 2019 01 08 00 00  0.000000  2   -0.240374029112E-07  0.260503014911E-10          
AR CPXF 2019 01 08 00 00  0.000000  2    0.126863604114E-07  0.359615328427E-10          
AR CRO1 2019 01 08 00 00  0.000000  2    0.157894006811E-07  0.374109321560E-10          
AR CUT0 2019 01 08 00 00  0.000000  2   -0.357489434558E-03  0.304265466455E-10          
AR DAEJ 2019 01 08 00 00  0.000000  2   -0.276988507691E-07  0.217206439400E-10          
AR DARW 2019 01 08 00 00  0.000000  2    0.993739006091E-08  0.379264969062E-10          
AR DAV1 2019 01 08 00 00  0.000000  2    0.241572944566E-03  0.256443590416E-10          
AR DGAR 2019 01 08 00 00  0.000000  2   -0.241973467744E-08  0.485255625372E-10          
AR DHLG 2019 01 08 00 00  0.000000  2    0.146422026912E-07  0.434385928734E-10          
AR DLF1 2019 01 08 00 00  0.000000  2   -0.306797091635E-07  0.187112933664E-10          
AR DOUR 2019 01 08 00 00  0.000000  2    0.218314210602E-03  0.229808715114E-10          
AR DRAO 2019 01 08 00 00  0.000000  2   -0.121770666451E-04  0.161770826993E-10          
AR DUBO 2019 01 08 00 00  0.000000  2    0.173219483941E-04  0.181100492661E-10          
AR DYNG 2019 01 08 00 00  0.000000  2   -0.288517885451E-07  0.189351192869E-10          
AR EBRE 2019 01 08 00 00  0.000000  2    0.115224305756E-07  0.230380234942E-10          
AR FAA1 2019 01 08 00 00  0.000000  2    0.128269664557E-03  0.485423767170E-10          
AR FAIR 2019 01 08 00 00  0.000000  2   -0.471754207958E-08  0.352319522490E-10          
AR FLIN 2019 01 08 00 00  0.000000  2    0.242283197123E-07  0.187224733465E-10          
AR FLRS 2019 01 08 00 00  0.000000  2    0.102140355178E-08  0.239531577117E-10          
AR FRDN 2019 01 08 00 00  0.000000  2    0.107602809159E-07  0.161638259693E-10          
AR FTNA 2019 01 08 00 00  0.000000  2   -0.312074638914E-07  0.407902935844E-10          
AR FUNC 2019 01 08 00 00  0.000000  2    0.171119519618E-08  0.206401596130E-10          
AR GANP 2019 01 08 00 00  0.000000  2   -0.286876459126E-07  0.173885794073E-10          
AR GLPS 2019 01 08 00 00  0.000000  2    0.583262598635E-08  0.664753793128E-10          
AR GLSV 2019 01 08 00 00  0.000000  2    0.219952355279E-08  0.198684035264E-10          
AR GMSD 2019 01 08 00 00  0.000000  2   -0.311692384303E-07  0.240718715141E-10          
AR GODE 2019 01 08 00 00  0.000000  2   -0.755554696934E-04  0.230490267835E-10          
AR GODZ 2019 01 08 00 00  0.000000  2    0.292007268101E-03  0.244742427267E-10          
AR GOL2 2019 01 08 00 00  0.000000  2    0.929053031738E-03  0.225096013861E-10          
AR GOP6 2019 01 08 00 00  0.000000  2    0.275404843719E-08  0.174939967140E-10          
AR GOPE 2019 01 08 00 00  0.000000  2   -0.393982454220E-07  0.192634600753E-10          
AR GRAC 2019 01 08 00 00  0.000000  2    0.581478910189E-07  0.347972870817E-10          
AR GRAS 2019 01 08 00 00  0.000000  2   -0.365313317316E-07  0.212723556783E-10          
AR GRAZ 2019 01 08 00 00  0.000000  2    0.424664327092E-03  0.208458750176E-10          
AR GUAM 2019 01 08 00 00  0.000000  2   -0.124351880579E-08  0.307389655448E-10          
AR GUAT 2019 01 08 00 00  0.000000  2    0.333477561265E-08  0.294909634061E-10          
AR GUUG 2019 01 08 00 00  0.000000  2   -0.266784542060E-07  0.147062684711E-09          
AR HARB 2019 01 08 00 00  0.000000  2   -0.274153407963E-03  0.288577749175E-10          
AR HERS 2019 01 08 00 00  0.000000  2    0.190163341133E-05  0.153349642116E-10          
AR HERT 2019 01 08 00 00  0.000000  2    0.168094685298E-08  0.166129440593E-10          
AR HLFX 2019 01 08 00 00  0.000000  2   -0.532285040502E-04  0.208902355511E-10          
AR HNLC 2019 01 08 00 00  0.000000  2   -0.179117747527E-07  0.382079647307E-10          
AR HNPT 2019 01 08 00 00  0.000000  2   -0.163278533896E-08  0.960354029159E-10          
AR HOB2 2019 01 08 00 00  0.000000  2    0.107240828079E-08  0.294882169262E-10          
AR HOFN 2019 01 08 00 00  0.000000  2    0.407760307725E-07  0.206656232218E-10          
AR HOLB 2019 01 08 00 00  0.000000  2    0.972804692536E-08  0.177956005190E-10          
AR HRAG 2019 01 08 00 00  0.000000  2    0.403779709017E-03  0.296757253222E-10          
AR HRAO 2019 01 08 00 00  0.000000  2   -0.218813024182E-03  0.957026679325E-10          
AR HYDE 2019 01 08 00 00  0.000000  2    0.381767955910E-08  0.217535252975E-10          
AR IDDR 2019 01 08 00 00  0.000000  2    0.273789080551E-07  0.637961138524E-10          
AR IISC 2019 01 08 00 00  0.000000  2   -0.507694727100E-08  0.245449311961E-10          
AR IMPZ 2019 01 08 00 00  0.000000  2   -0.331415119107E-07  0.350626190546E-10          
AR INEG 2019 01 08 00 00  0.000000  2    0.269057233081E-07  0.212392401833E-10          
AR IQAL 2019 01 08 00 00  0.000000  2    0.111796925443E-07  0.228145925595E-10          
AR IRKJ 2019 01 08 00 00  0.000000  2   -0.201385400025E-03  0.208813610979E-10          
AR IRKM 2019 01 08 00 00  0.000000  2    0.754237031387E-03  0.275075587631E-10          
AR ISBA 2019 01 08 00 00  0.000000  2   -0.196671078491E-07  0.254123319654E-10          
AR JFNG 2019 01 08 00 00  0.000000  2   -0.316315554055E-07  0.259708278547E-10          
AR JOG2 2019 01 08 00 00  0.000000  2   -0.423344345830E-03  0.344581493614E-10          
AR JOZ2 2019 01 08 00 00  0.000000  2    0.465226071303E-08  0.196304798724E-10          
AR JOZE 2019 01 08 00 00  0.000000  2    0.370609636728E-03  0.216072046778E-10          
AR KARR 2019 01 08 00 00  0.000000  2   -0.313077742774E-07  0.268870889768E-10          
AR KERG 2019 01 08 00 00  0.000000  2   -0.232236701668E-07  0.371763282853E-10          
AR KIR0 2019 01 08 00 00  0.000000  2    0.621273144678E-09  0.287198862664E-10          
AR KIR8 2019 01 08 00 00  0.000000  2   -0.297300427917E-07  0.187568518725E-10          
AR KIRU 2019 01 08 00 00  0.000000  2    0.362475284672E-05  0.189041790991E-10          
AR KIT3 2019 01 08 00 00  0.000000  2    0.327068385884E-03  0.304494142215E-10          
AR KLOP 2019 01 08 00 00  0.000000  2   -0.194080506552E-07  0.562548153545E-10          
AR KOKB 2019 01 08 00 00  0.000000  2    0.144397496914E-03  0.312446755954E-10          
AR KOKV 2019 01 08 00 00  0.000000  2    0.257492293079E-03  0.626382919216E-10          
AR KOUC 2019 01 08 00 00  0.000000  2   -0.221097421722E-07  0.334651389444E-10          
AR KOUG 2019 01 08 00 00  0.000000  2    0.346319510929E-03  0.299633712397E-10          
AR KOUR 2019 01 08 00 00  0.000000  2   -0.305697522384E-03  0.318256716690E-10          
AR KRGG 2019 01 08 00 00  0.000000  2    0.382526881666E-07  0.281109275144E-10          
AR KZN2 2019 01 08 00 00  0.000000  2   -0.287355917045E-07  0.391209243867E-10          
AR LAMA 2019 01 08 00 00  0.000000  2    0.842891350675E-08  0.187233247467E-10          
AR LAUT 2019 01 08 00 00  0.000000  2   -0.419127999138E-03  0.338209512473E-10          
AR LEIJ 2019 01 08 00 00  0.000000  2    0.435851983514E-03  0.406366683229E-10          
AR LHAZ 2019 01 08 00 00  0.000000  2    0.220876069267E-07  0.311039205991E-10          
AR LLAG 2019 01 08 00 00  0.000000  2   -0.403127405063E-03  0.358126117171E-10          
AR LMMF 2019 01 08 00 00  0.000000  2   -0.183507065428E-07  0.416854673006E-10          
AR LPAL 2019 01 08 00 00  0.000000  2    0.191042048728E-08  0.199680508572E-10          
AR LPGS 2019 01 08 00 00  0.000000  2   -0.174892621102E-03  0.289952574688E-10          
AR M0SE 2019 01 08 00 00  0.000000  2    0.435839580845E-07  0.238976659095E-10          
AR MAC1 2019 01 08 00 00  0.000000  2   -0.428921024079E-03  0.207474403630E-10          
AR MAD2 2019 01 08 00 00  0.000000  2   -0.246094074665E-05  0.621448567847E-10          
AR MADR 2019 01 08 00 00  0.000000  2   -0.333252714783E-03  0.463678062074E-10          
AR MAG0 2019 01 08 00 00  0.000000  2   -0.565177552684E-07  0.231611759641E-10          
AR MAJU 2019 01 08 00 00  0.000000  2    0.685631243520E-08  0.393778744164E-10          
AR MANA 2019 01 08 00 00  0.000000  2   -0.222082772681E-07  0.510718969309E-10          
AR MAO0 2019 01 08 00 00  0.000000  2   -0.174958856340E-03  0.820459148895E-10          
AR MAR6 2019 01 08 00 00  0.000000  2   -0.198903924753E-09  0.253718964293E-10          
AR MAR7 2019 01 08 00 00  0.000000  2   -0.291295939926E-07  0.268949477782E-10          
AR MARS 2019 01 08 00 00  0.000000  2    0.280537387290E-07  0.345456896353E-10          
AR MAS1 2019 01 08 00 00  0.000000  2    0.293957105969E-03  0.214815704747E-10          
AR MAT1 2019 01 08 00 00  0.000000  2    0.143073449937E-07  0.252097623284E-10          
AR MATE 2019 01 08 00 00  0.000000  2   -0.198008604678E-06  0.164472658829E-10          
AR MAUI 2019 01 08 00 00  0.000000  2   -0.394696773788E-03  0.226331506880E-10          
AR MAW1 2019 01 08 00 00  0.000000  2   -0.659632511024E-09  0.195747169035E-10          
AR MAYG 2019 01 08 00 00  0.000000  2   -0.207862766570E-07  0.389910271199E-10          
AR MCM4 2019 01 08 00 00  0.000000  2   -0.109086035077E-07  0.480603434230E-10          
AR MDO1 2019 01 08 00 00  0.000000  2   -0.702565834257E-08  0.177988475917E-10          
AR MDVJ 2019 01 08 00 00  0.000000  2    0.224268079028E-03  0.210433617459E-10          
AR MEDI 2019 01 08 00 00  0.000000  2    0.395877593179E-06  0.783723782520E-10          
AR METG 2019 01 08 00 00  0.000000  2   -0.300030954816E-07  0.205391727582E-10          
AR METS 2019 01 08 00 00  0.000000  2   -0.432901119537E-03  0.270093638835E-10          
AR MGUE 2019 01 08 00 00  0.000000  2   -0.385144572057E-03  0.274848204915E-10          
AR MIZU 2019 01 08 00 00  0.000000  2   -0.596825186704E-04  0.302949467213E-10          
AR MKEA 2019 01 08 00 00  0.000000  2    0.279798961095E-03  0.254713540231E-10          
AR MOBJ 2019 01 08 00 00  0.000000  2   -0.164964314010E-03  0.363371732327E-10          
AR MOBK 2019 01 08 00 00  0.000000  2    0.136175637802E-03  0.351961907484E-10          
AR MOBN 2019 01 08 00 00  0.000000  2   -0.510214144299E-07  0.414572452677E-10          
AR MOBS 2019 01 08 00 00  0.000000  2   -0.466134088441E-08  0.262033804113E-10          
AR MONP 2019 01 08 00 00  0.000000  2    0.295189905833E-07  0.357155900879E-10          
AR MORP 2019 01 08 00 00  0.000000  2   -0.280115457547E-07  0.274624294586E-10          
AR MQZG 2019 01 08 00 00  0.000000  2   -0.829043914325E-08  0.432689725627E-10          
AR MRO1 2019 01 08 00 00  0.000000  2   -0.375474947937E-07  0.245404146066E-10          
AR MTKA 2019 01 08 00 00  0.000000  2   -0.424814005243E-07  0.261227225296E-10          
AR MYVA 2019 01 08 00 00  0.000000  2    0.308101577833E-07  0.214013521852E-10          
AR NAIN 2019 01 08 00 00  0.000000  2   -0.453989060910E-07  0.234783238506E-10          
AR NANO 2019 01 08 00 00  0.000000  2    0.113936483016E-07  0.174796538760E-10          
AR NAUR 2019 01 08 00 00  0.000000  2    0.181455484504E-08  0.282602091144E-10          
AR NICO 2019 01 08 00 00  0.000000  2    0.474419338472E-07  0.262423289352E-10          
AR NIUM 2019 01 08 00 00  0.000000  2   -0.398166215347E-07  0.292062227260E-10          
AR NKLG 2019 01 08 00 00  0.000000  2   -0.309746622665E-07  0.299102248120E-10          
AR NNOR 2019 01 08 00 00  0.000000  2   -0.173819255757E-03  0.303042771077E-10          
AR NOT1 2019 01 08 00 00  0.000000  2   -0.181528275592E-05  0.189401938182E-10          
AR NOVM 2019 01 08 00 00  0.000000  2   -0.442543365482E-03  0.319725842395E-10          
AR NRC1 2019 01 08 00 00  0.000000  2   -0.112482153295E-04  0.174459788969E-10          
AR NRIL 2019 01 08 00 00  0.000000  2   -0.415221635097E-07  0.208098445564E-10          
AR NRMD 2019 01 08 00 00  0.000000  2   -0.205306708516E-07  0.267339228350E-10          
AR NTUS 2019 01 08 00 00  0.000000  2    0.486081599407E-08  0.356725137208E-10          
AR NYA1 2019 01 08 00 00  0.000000  2   -0.325109202006E-07  0.178582787836E-10          
AR NYA2 2019 01 08 00 00  0.000000  2    0.355352941064E-03  0.210453354501E-10          
AR NYAL 2019 01 08 00 00  0.000000  2    0.394604659078E-03  0.275823927174E-10          
AR OHI2 2019 01 08 00 00  0.000000  2    0.185291880293E-03  0.179800063881E-10          
AR OHI3 2019 01 08 00 00  0.000000  2   -0.640177004417E-05  0.195745855643E-10          
AR ONS1 2019 01 08 00 00  0.000000  2   -0.287355899486E-07  0.194551020792E-10          
AR ONSA 2019 01 08 00 00  0.000000  2    0.560748992659E-08  0.206291902695E-10          
AR OPMT 2019 01 08 00 00  0.000000  2    0.294530355820E-06  0.326622654895E-10          
AR OUS2 2019 01 08 00 00  0.000000  2    0.486511116046E-03  0.229260975018E-10          
AR PADO 2019 01 08 00 00  0.000000  2    0.297571656102E-03  0.183730507499E-10          
AR PARK 2019 01 08 00 00  0.000000  2   -0.298928989179E-07  0.275324057595E-10          
AR PBRI 2019 01 08 00 00  0.000000  2   -0.645327077704E-06  0.373022119707E-10          
AR PDEL 2019 01 08 00 00  0.000000  2   -0.712702189077E-09  0.217551350594E-10          
AR PENC 2019 01 08 00 00  0.000000  2    0.261136771089E-08  0.189797604083E-10          
AR PERT 2019 01 08 00 00  0.000000  2   -0.352352985139E-07  0.308653230805E-10          
AR PETS 2019 01 08 00 00  0.000000  2   -0.567365852584E-07  0.271592288945E-10          
AR PFA2 2019 01 08 00 00  0.000000  2    0.231738023182E-07  0.331170394280E-10          
AR PIMO 2019 01 08 00 00  0.000000  2    0.640598908097E-08  0.479086893410E-10          
AR POHN 2019 01 08 00 00  0.000000  2   -0.460361753378E-03  0.452781869814E-10          
AR POLV 2019 01 08 00 00  0.000000  2    0.396233734024E-07  0.286519711122E-10          
AR POTS 2019 01 08 00 00  0.000000  2   -0.166155372759E-03  0.226559900938E-10          
AR POVE 2019 01 08 00 00  0.000000  2   -0.307052326071E-08  0.271683456829E-10          
AR PRDS 2019 01 08 00 00  0.000000  2   -0.235264094933E-03  0.153039768608E-10          
AR PTAG 2019 01 08 00 00  0.000000  2    0.772850349117E-08  0.322498242110E-10          
AR PTBB 2019 01 08 00 00  0.000000  2    0.510660325237E-06  0.271574008770E-10          
AR QAQ1 2019 01 08 00 00  0.000000  2    0.248365352007E-03  0.207006451245E-10          
AR QUIN 2019 01 08 00 00  0.000000  2    0.105813473188E-07  0.317635776740E-10          
AR RABT 2019 01 08 00 00  0.000000  2   -0.427373284541E-07  0.192198640517E-10          
AR RBAY 2019 01 08 00 00  0.000000  2   -0.168567309611E-07  0.439126477472E-10          
AR REDU 2019 01 08 00 00  0.000000  2    0.113479424295E-03  0.220314579981E-10          
AR REUN 2019 01 08 00 00  0.000000  2   -0.637721363552E-08  0.416289289799E-10          
AR REYK 2019 01 08 00 00  0.000000  2    0.366318516999E-07  0.313011115222E-10          
AR RGDG 2019 01 08 00 00  0.000000  2   -0.248030563807E-07  0.187382460167E-10          
AR RIO2 2019 01 08 00 00  0.000000  2   -0.398780213990E-03  0.197603239682E-10          
AR RIOP 2019 01 08 00 00  0.000000  2    0.547254796084E-07  0.284319215087E-10          
AR ROTH 2019 01 08 00 00  0.000000  2    0.315000855155E-08  0.245058868428E-09          
AR SALU 2019 01 08 00 00  0.000000  2   -0.166923130748E-07  0.394850789688E-10          
AR SAMO 2019 01 08 00 00  0.000000  2   -0.305208735903E-07  0.347170568380E-10          
AR SANT 2019 01 08 00 00  0.000000  2   -0.337648040410E-03  0.249134349386E-10          
AR SASS 2019 01 08 00 00  0.000000  2    0.441889576354E-03  0.175537656829E-10          
AR SAVO 2019 01 08 00 00  0.000000  2   -0.506556981147E-08  0.376417940488E-10          
AR SCH2 2019 01 08 00 00  0.000000  2    0.188280395467E-07  0.231226311141E-10          
AR SCOR 2019 01 08 00 00  0.000000  2   -0.157341220292E-03  0.159182242254E-10          
AR SCRZ 2019 01 08 00 00  0.000000  2    0.225009860240E-07  0.392197253780E-10          
AR SCTB 2019 01 08 00 00  0.000000  2   -0.346802213404E-07  0.341759190435E-10          
AR SCUB 2019 01 08 00 00  0.000000  2   -0.321882781580E-03  0.385968803566E-10          
AR SEYG 2019 01 08 00 00  0.000000  2   -0.222786450093E-07  0.383000347263E-10          
AR SFER 2019 01 08 00 00  0.000000  2    0.363325703052E-07  0.161870504000E-10          
AR SHAO 2019 01 08 00 00  0.000000  2   -0.566595512680E-07  0.330694873567E-10          
AR SOFI 2019 01 08 00 00  0.000000  2   -0.126974137200E-07  0.232410806265E-10          
AR SPT0 2019 01 08 00 00  0.000000  2    0.161234501811E-08  0.280834443982E-10          
AR STFU 2019 01 08 00 00  0.000000  2   -0.227698544908E-03  0.239947519753E-10          
AR STHL 2019 01 08 00 00  0.000000  2    0.252045761335E-09  0.233795455615E-10          
AR STJ3 2019 01 08 00 00  0.000000  2    0.326533797237E-04  0.156969868268E-10          
AR STJO 2019 01 08 00 00  0.000000  2   -0.107601797079E-04  0.167892078140E-10          
AR STK2 2019 01 08 00 00  0.000000  2   -0.190004963634E-07  0.201419480687E-10          
AR STR2 2019 01 08 00 00  0.000000  2   -0.375205099093E-07  0.300580614807E-10          
AR SUTH 2019 01 08 00 00  0.000000  2   -0.100573085828E-07  0.219771622335E-10          
AR SUTM 2019 01 08 00 00  0.000000  2   -0.326625356986E-03  0.291856326494E-10          
AR SUWN 2019 01 08 00 00  0.000000  2   -0.195326720820E-07  0.216731449299E-10          
AR SYDN 2019 01 08 00 00  0.000000  2    0.234866968776E-05  0.318475702358E-10          
AR SYOG 2019 01 08 00 00  0.000000  2   -0.237008943347E-07  0.876997227764E-10          
AR TABL 2019 01 08 00 00  0.000000  2   -0.131937495575E-07  0.316993933569E-10          
AR TABV 2019 01 08 00 00  0.000000  2    0.187028030686E-07  0.220209092683E-10          
AR TASH 2019 01 08 00 00  0.000000  2    0.414711585734E-03  0.190046688198E-10          
AR THTG 2019 01 08 00 00  0.000000  2    0.171877195918E-07  0.341328031023E-10          
AR THTI 2019 01 08 00 00  0.000000  2   -0.493202819172E-07  0.350020195836E-10          
AR THU2 2019 01 08 00 00  0.000000  2    0.513668725742E-03  0.169639716485E-10          
AR THU3 2019 01 08 00 00  0.000000  2   -0.480488102826E-07  0.222476679450E-10          
AR TID1 2019 01 08 00 00  0.000000  2   -0.103784276841E-03  0.298083991863E-10          
AR TIDB 2019 01 08 00 00  0.000000  2   -0.647410637490E-07  0.377285787344E-10          
AR TIXG 2019 01 08 00 00  0.000000  2    0.161334840475E-04  0.256800846782E-10          
AR TIXI 2019 01 08 00 00  0.000000  2    0.243343255760E-03  0.256290242373E-10          
AR TLSE 2019 01 08 00 00  0.000000  2   -0.289115873764E-07  0.254527012356E-10          
AR TN22 2019 01 08 00 00  0.000000  2   -0.191062139309E-04  0.473509276448E-10          
AR TONG 2019 01 08 00 00  0.000000  2    0.280305159611E-03  0.362756642984E-10          
AR TOW2 2019 01 08 00 00  0.000000  2   -0.468486183993E-08  0.305295756895E-10          
AR TRO1 2019 01 08 00 00  0.000000  2   -0.204489834316E-03  0.224735020457E-10          
AR TSEA 2019 01 08 00 00  0.000000  2   -0.104432649222E-07  0.460304237852E-10          
AR TSK2 2019 01 08 00 00  0.000000  2   -0.181073547393E-07  0.213837777359E-10          
AR TSKB 2019 01 08 00 00  0.000000  2   -0.348140729841E-07  0.332656285861E-10          
AR TUVA 2019 01 08 00 00  0.000000  2   -0.344323737880E-07  0.318607122505E-10          
AR TWTF 2019 01 08 00 00  0.000000  2   -0.362235489438E-03  0.192645549590E-10          
AR TXES 2019 01 08 00 00  0.000000  2   -0.893297149222E-08  0.265880205365E-10          
AR UCAL 2019 01 08 00 00  0.000000  2   -0.236019970567E-07  0.276796963478E-10          
AR UCLU 2019 01 08 00 00  0.000000  2    0.642927797739E-08  0.184102333582E-10          
AR UFPR 2019 01 08 00 00  0.000000  2   -0.833907802034E-08  0.347008180511E-10          
AR ULAB 2019 01 08 00 00  0.000000  2    0.200012757002E-03  0.368672739360E-10          
AR UNB3 2019 01 08 00 00  0.000000  2   -0.259097368571E-07  0.217157149293E-10          
AR UNBD 2019 01 08 00 00  0.000000  2   -0.156589729625E-03  0.287922212280E-10          
AR UNBJ 2019 01 08 00 00  0.000000  2   -0.500772632300E-03  0.220308476479E-10          
AR UNBN 2019 01 08 00 00  0.000000  2    0.308273015235E-07  0.337484812471E-10          
AR UNSA 2019 01 08 00 00  0.000000  2    0.202761701746E-03  0.380700509584E-10          
AR UNTR 2019 01 08 00 00  0.000000  2   -0.342226463422E-04  0.187971981557E-10          
AR USN7 2019 01 08 00 00  0.000000  2    0.213839639595E-06  0.227444741471E-10          
AR VALD 2019 01 08 00 00  0.000000  2   -0.207964649576E-08  0.178655232032E-10          
AR VILL 2019 01 08 00 00  0.000000  2    0.179732868719E-03  0.226402539138E-10          
AR VIS0 2019 01 08 00 00  0.000000  2    0.503493111906E-09  0.186956164330E-10          
AR VOIM 2019 01 08 00 00  0.000000  2    0.100147630026E-03  0.343539017236E-10          
AR VTSP 2019 01 08 00 00  0.000000  2   -0.219534747930E-07  0.293120876943E-10          
AR WAB1 2019 01 08 00 00  0.000000  2    0.782533620383E-08  0.240331329661E-10          
AR WAB2 2019 01 08 00 00  0.000000  2    0.225311979371E-06  0.219242534917E-10          
AR WARK 2019 01 08 00 00  0.000000  2   -0.780228328586E-08  0.385353127362E-10          
AR WARN 2019 01 08 00 00  0.000000  2   -0.425908623564E-03  0.348511865331E-10          
AR WES2 2019 01 08 00 00  0.000000  2   -0.256836673758E-03  0.848622829986E-10          
AR WGTN 2019 01 08 00 00  0.000000  2   -0.175652333124E-07  0.388996898443E-10          
AR WHIT 2019 01 08 00 00  0.000000  2    0.912189016749E-05  0.143852489785E-10          
AR WILL 2019 01 08 00 00  0.000000  2   -0.157909788777E-07  0.166055150143E-10          
AR WIND 2019 01 08 00 00  0.000000  2    0.104732218487E-03  0.230114277308E-10          
AR WROC 2019 01 08 00 00  0.000000  2    0.445570309866E-08  0.245734841854E-10          
AR WSRT 2019 01 08 00 00  0.000000  2    0.373253574555E-03  0.163460045384E-10          
AR WTZ2 2019 01 08 00 00  0.000000  2   -0.132016315908E-06  0.187925302093E-10          
AR WTZA 2019 01 08 00 00  0.000000  2    0.102180813288E-05  0.286529284991E-10          
AR WTZR 2019 01 08 00 00  0.000000  2   -0.194686611441E-06  0.238343567575E-10          
AR WTZS 2019 01 08 00 00  0.000000  2    0.930467449673E-06  0.155773550637E-10          
AR WUH2 2019 01 08 00 00  0.000000  2    0.160569097061E-03  0.480082930342E-10          
AR XMIS 2019 01 08 00 00  0.000000  2   -0.362986082582E-07  0.244709743169E-10          
AR YAKT 2019 01 08 00 00  0.000000  2   -0.522492139425E-07  0.414932243021E-10          
AR YAR2 2019 01 08 00 00  0.000000  2   -0.277597800544E-03  0.272371469507E-10          
AR YAR3 2019 01 08 00 00  0.000000  2    0.301196909519E-08  0.282740284532E-10          
AR YARR 2019 01 08 00 00  0.000000  2   -0.545324418374E-09  0.262915529922E-10          
AR YCBA 2019 01 08 00 00  0.000000  2    0.370511280734E-08  0.231872873397E-10          
AR YEL2 2019 01 08 00 00  0.000000  2    0.379239329184E-03  0.165029895941E-10          
AR YELL 2019 01 08 00 00  0.000000  2   -0.408335619915E-03  0.176258745291E-10          
AR YSSK 2019 01 08 00 00  0.000000  2   -0.602163658195E-07  0.248484736318E-10          
AR ZECK 2019 01 08 00 00  0.000000  2   -0.396938129144E-03  0.224950282008E-10          
AR ZIM2 2019 01 08 00 00  0.000000  2   -0.226225656185E-07  0.221523709169E-10          
AR ZIM3 2019 01 08 00 00  0.000000  2   -0.582557873896E-04  0.217576269374E-10          
AR ZIMJ 2019 01 08 00 00  0.000000  2   -0.467803555125E-03  0.194374991143E-10          
AR ZIMM 2019 01 08 00 00  0.000000  2   -0.193652142385E-07  0.255668917797E-10          
AS G01  2019 01 08 00 00  0.000000  2   -0.141648778557E-03  0.305413520003E-11          
AS G02  2019 01 08 00 00  0.000000  2   -0.107145589371E-03  0.281885444769E-11          
AS G03  2019 01 08 00 00  0.000000  2    0.175667475829E-03  0.324365813448E-11          
AS G05  2019 01 08 00 00  0.000000  2    0.724474237934E-06  0.281948209153E-11          
AS G06  2019 01 08 00 00  0.000000  2    0.301295532454E-03  0.288409087255E-11          
AS G07  2019 01 08 00 00  0.000000  2    0.558643636704E-04  0.270442550138E-11          
AS G08  2019 01 08 00 00  0.000000  2   -0.128289597641E-03  0.270191729407E-11          
AS G09  2019 01 08 00 00  0.000000  2    0.474386448877E-03  0.273804986705E-11          
AS G10  2019 01 08 00 00  0.000000  2    0.139326322990E-03  0.292823983596E-11          
AS G11  2019 01 08 00 00  0.000000  2   -0.678387877894E-03  0.294859605238E-11          
AS G12  2019 01 08 00 00  0.000000  2    0.278172407288E-03  0.297793379243E-11          
AS G13  2019 01 08 00 00  0.000000  2   -0.790617728578E-04  0.282695142416E-11          
AS G14  2019 01 08 00 00  0.000000  2   -0.935018366604E-04  0.312146674282E-11          
AS G15  2019 01 08 00 00  0.000000  2   -0.333152603219E-03  0.287457884976E-11          
AS G16  2019 01 08 00 00  0.000000  2   -0.113667334872E-04  0.260711591778E-11          
AS G17  2019 01 08 00 00  0.000000  2   -0.783654813758E-05  0.313664338540E-11          
AS G18  2019 01 08 00 00  0.000000  2    0.135562771098E-04  0.293650965421E-11          
AS G19  2019 01 08 00 00  0.000000  2   -0.365695519595E-03  0.294405831208E-11          
AS G20  2019 01 08 00 00  0.000000  2    0.520874200708E-03  0.271138716170E-11          
AS G21  2019 01 08 00 00  0.000000  2   -0.273170280873E-03  0.263377293438E-11          
AS G22  2019 01 08 00 00  0.000000  2   -0.617565933449E-03  0.312170859513E-11          
AS G23  2019 01 08 00 00  0.000000  2   -0.201207105437E-03  0.280280338096E-11          
AS G24  2019 01 08 00 00  0.000000  2   -0.604955591947E-04  0.288726957896E-11          
AS G25  2019 01 08 00 00  0.000000  2   -0.702696810648E-03  0.308362100152E-11          
AS G26  2019 01 08 00 00  0.000000  2    0.901352064837E-04  0.262736434462E-11          
AS G27  2019 01 08 00 00  0.000000  2   -0.452066910406E-04  0.262962986007E-11          
AS G28  2019 01 08 00 00  0.000000  2    0.761231332533E-03  0.307943802692E-11          
AS G29  2019 01 08 00 00  0.000000  2    0.298237471542E-03  0.283918320778E-11          
AS G30  2019 01 08 00 00  0.000000  2   -0.323009083512E-04  0.282584012095E-11          
AS G31  2019 01 08 00 00  0.000000  2    0.673353384529E-04  0.300101050644E-11          
AS G32  2019 01 08 00 00  0.000000  2   -0.284747131616E-03  0.314542322393E-11          
AS R01  2019 01 08 00 00  0.000000  2    0.376028884685E-04  0.867188711291E-11          
AS R02  2019 01 08 00 00  0.000000  2    0.348300421603E-03  0.850384144373E-11          
AS R03  2019 01 08 00 00  0.000000  2    0.153896434978E-03  0.843812885575E-11          
AS R04  2019 01 08 00 00  0.000000  2    0.290463824143E-03  0.863577195659E-11          
AS R05  2019 01 08 00 00  0.000000  2    0.194645093798E-04  0.864926450574E-11          
AS R07  2019 01 08 00 00  0.000000  2   -0.553882421384E-04  0.868993626670E-11          
AS R08  2019 01 08 00 00  0.000000  2    0.196700157094E-04  0.877844249918E-11          
AS R09  2019 01 08 00 00  0.000000  2    0.478371590893E-04  0.840366604280E-11          
AS R10  2019 01 08 00 00  0.000000  2    0.391711350090E-04  0.819899184082E-11          
AS R11  2019 01 08 00 00  0.000000  2   -0.527850897920E-04  0.841782102061E-11          
AS R13  2019 01 08 00 00  0.000000  2   -0.187598324992E-04  0.865121796628E-11          
AS R14  2019 01 08 00 00  0.000000  2    0.347177719336E-04  0.863511670619E-11          
AS R15  2019 01 08 00 00  0.000000  2    0.991998169631E-04  0.882446918623E-11          
AS R17  2019 01 08 00 00  0.000000  2    0.194352021543E-03  0.861434303328E-11          
AS R18  2019 01 08 00 00  0.000000  2    0.294497546147E-04  0.841482538161E-11          
AS R19  2019 01 08 00 00  0.000000  2   -0.623102264908E-04  0.812385030078E-11          
AS R20  2019 01 08 00 00  0.000000  2   -0.364887242099E-03  0.819978665593E-11          
AS R21  2019 01 08 00 00  0.000000  2   -0.243172599885E-04  0.850129218038E-11          
AS R22  2019 01 08 00 00  0.000000  2   -0.643256189353E-04  0.893032435181E-11          
AS R23  2019 01 08 00 00  0.000000  2    0.201826650765E-03  0.891435255598E-11          
AS R24  2019 01 08 00 00  0.000000  2   -0.175790611151E-03  0.951247317018E-11          
AR PIE1 2019 01 08 00 00 30.000000  1   -0.434274931198E-03                              
AS G01  2019 01 08 00 00 30.000000  1   -0.141648969129E-03                              
AS G02  2019 01 08 00 00 30.000000  1   -0.107146006698E-03                              
AS G03  2019 01 08 00 00 30.000000  1    0.175667557231E-03                              
AS G05  2019 01 08 00 00 30.000000  1    0.724448477419E-06                              
AS G06  2019 01 08 00 00 30.000000  1    0.301295308354E-03                              
AS G07  2019 01 08 00 00 30.000000  1    0.558641722987E-04                              
AS G08  2019 01 08 00 00 30.000000  1   -0.128289761364E-03                              
AS G09  2019 01 08 00 00 30.000000  1    0.474386309426E-03                              
AS G10  2019 01 08 00 00 30.000000  1    0.139326123021E-03                              
AS G11  2019 01 08 00 00 30.000000  1   -0.678387530182E-03                              
AS G12  2019 01 08 00 00 30.000000  1    0.278172356943E-03                              
AS G13  2019 01 08 00 00 30.000000  1   -0.790616873700E-04                              
AS G14  2019 01 08 00 00 30.000000  1   -0.935018342281E-04                              
AS G15  2019 01 08 00 00 30.000000  1   -0.333152585276E-03                              
AS G16  2019 01 08 00 00 30.000000  1   -0.113667803648E-04                              
AS G17  2019 01 08 00 00 30.000000  1   -0.783634765768E-05                              
AS G18  2019 01 08 00 00 30.000000  1    0.135564316970E-04                              
AS G19  2019 01 08 00 00 30.000000  1   -0.365695505345E-03                              
AS G20  2019 01 08 00 00 30.000000  1    0.520874403537E-03                              
AS G21  2019 01 08 00 00 30.000000  1   -0.273170139793E-03                              
AS G22  2019 01 08 00 00 30.000000  1   -0.617566203942E-03                              
AS G23  2019 01 08 00 00 30.000000  1   -0.201206992006E-03                              
AS G24  2019 01 08 00 00 30.000000  1   -0.604958036628E-04                              
AS G25  2019 01 08 00 00 30.000000  1   -0.702696978573E-03                              
AS G26  2019 01 08 00 00 30.000000  1    0.901355298180E-04                              
AS G27  2019 01 08 00 00 30.000000  1   -0.452068861456E-04                              
AS G28  2019 01 08 00 00 30.000000  1    0.761231390706E-03                              
AS G29  2019 01 08 00 00 30.000000  1    0.298237281061E-03                              
AS G30  2019 01 08 00 00 30.000000  1   -0.323010911710E-04                              
AS G31  2019 01 08 00 00 30.000000  1    0.673351663790E-04                              
AS G32  2019 01 08 00 00 30.000000  1   -0.284746631507E-03                              
AS R01  2019 01 08 00 00 30.000000  1    0.376028744926E-04                              
AS R02  2019 01 08 00 00 30.000000  1    0.348300410104E-03                              
AS R03  2019 01 08 00 00 30.000000  1    0.153896482026E-03                              
AS R04  2019 01 08 00 00 30.000000  1    0.290463681116E-03                              
AS R05  2019 01 08 00 00 30.000000  1    0.194645156500E-04                              
AS R07  2019 01 08 00 00 30.000000  1   -0.553882908980E-04                              
AS R08  2019 01 08 00 00 30.000000  1    0.196699240287E-04                              
AS R09  2019 01 08 00 00 30.000000  1    0.478371956800E-04                              
AS R10  2019 01 08 00 00 30.000000  1    0.391710317949E-04                              
AS R11  2019 01 08 00 00 30.000000  1   -0.527851049445E-04                              
AS R13  2019 01 08 00 00 30.000000  1   -0.187597159728E-04                              
AS R14  2019 01 08 00 00 30.000000  1    0.347177868222E-04                              
AS R15  2019 01 08 00 00 30.000000  1    0.991998180270E-04                              
AS R17  2019 01 08 00 00 30.000000  1    0.194352108356E-03                              
AS R18  2019 01 08 00 00 30.000000  1    0.294497877738E-04                              
AS R19  2019 01 08 00 00 30.000000  1   -0.623103167294E-04                              
AS R20  2019 01 08 00 00 30.000000  1   -0.364887339417E-03                              
AS R21  2019 01 08 00 00 30.000000  1   -0.243173099640E-04                              
AS R22  2019 01 08 00 00 30.000000  1   -0.643256714938E-04                              
AS R23  2019 01 08 00 00 30.000000  1    0.201826759475E-03                              
AS R24  2019 01 08 00 00 30.000000  1   -0.175790703031E-03                              
AR PIE1 2019 01 08 00 01  0.000000  1   -0.434274946116E-03                              
AS G01  2019 01 08 00 01  0.000000  1   -0.141649168846E-03                              
AS G02  2019 01 08 00 01  0.000000  1   -0.107146348002E-03                              
AS G03  2019 01 08 00 01  0.000000  1    0.175667627408E-03                              
AS G05  2019 01 08 00 01  0.000000  1    0.724561832913E-06                              
AS G06  2019 01 08 00 01  0.000000  1    0.301295087600E-03                              
AS G07  2019 01 08 00 01  0.000000  1    0.558639382056E-04                              
AS G08  2019 01 08 00 01  0.000000  1   -0.128289850121E-03                              
AS G09  2019 01 08 00 01  0.000000  1    0.474386168384E-03                              
AS G10  2019 01 08 00 01  0.000000  1    0.139325932753E-03                              
AS G11  2019 01 08 00 01  0.000000  1   -0.678387232973E-03                              
AS G12  2019 01 08 00 01  0.000000  1    0.278172268560E-03                              
AS G13  2019 01 08 00 01  0.000000  1   -0.790615952139E-04                              
AS G14  2019 01 08 00 01  0.000000  1   -0.935019182582E-04                              
AS G15  2019 01 08 00 01  0.000000  1   -0.333152532493E-03                              
AS G16  2019 01 08 00 01  0.000000  1   -0.113668225048E-04                              
AS G17  2019 01 08 00 01  0.000000  1   -0.783621601654E-05                              
AS G18  2019 01 08 00 01  0.000000  1    0.135564898971E-04                              
AS G19  2019 01 08 00 01  0.000000  1   -0.365695478859E-03                              
AS G20  2019 01 08 00 01  0.000000  1    0.520874484071E-03                              
AS G21  2019 01 08 00 01  0.000000  1   -0.273169648367E-03                              
AS G22  2019 01 08 00 01  0.000000  1   -0.617566452098E-03                              
AS G23  2019 01 08 00 01  0.000000  1   -0.201206931087E-03                              
AS G24  2019 01 08 00 01  0.000000  1   -0.604957433501E-04                              
AS G25  2019 01 08 00 01  0.000000  1   -0.702697152732E-03                              
AS G26  2019 01 08 00 01  0.000000  1    0.901358538701E-04                              
AS G27  2019 01 08 00 01  0.000000  1   -0.452070823651E-04                              
AS G28  2019 01 08 00 01  0.000000  1    0.761231476086E-03                              
AS G29  2019 01 08 00 01  0.000000  1    0.298236924847E-03                              
AS G30  2019 01 08 00 01  0.000000  1   -0.323012784708E-04                              
AS G31  2019 01 08 00 01  0.000000  1    0.673350318122E-04                              
AS G32  2019 01 08 00 01  0.000000  1   -0.284746125377E-03                              
AS R01  2019 01 08 00 01  0.000000  1    0.376029005313E-04                              
AS R02  2019 01 08 00 01  0.000000  1    0.348300574236E-03                              
AS R03  2019 01 08 00 01  0.000000  1    0.153896482014E-03                              
AS R04  2019 01 08 00 01  0.000000  1    0.290463758516E-03                              
AS R05  2019 01 08 00 01  0.000000  1    0.194644952831E-04                              
AS R07  2019 01 08 00 01  0.000000  1   -0.553884052304E-04                              
AS R08  2019 01 08 00 01  0.000000  1    0.196697622049E-04                              
AS R09  2019 01 08 00 01  0.000000  1    0.478372874402E-04                              
AS R10  2019 01 08 00 01  0.000000  1    0.391708385767E-04                              
AS R11  2019 01 08 00 01  0.000000  1   -0.527851360247E-04                              
AS R13  2019 01 08 00 01  0.000000  1   -0.187597268781E-04                              
AS R14  2019 01 08 00 01  0.000000  1    0.347177662852E-04                              
AS R15  2019 01 08 00 01  0.000000  1    0.991997777646E-04                              
AS R17  2019 01 08 00 01  0.000000  1    0.194352259392E-03                              
AS R18  2019 01 08 00 01  0.000000  1    0.294497895820E-04                              
AS R19  2019 01 08 00 01  0.000000  1   -0.623106169815E-04                              
AS R20  2019 01 08 00 01  0.000000  1   -0.364887348877E-03                              
AS R21  2019 01 08 00 01  0.000000  1   -0.243174034292E-04                              
AS R22  2019 01 08 00 01  0.000000  1   -0.643257055273E-04                              
AS R23  2019 01 08 00 01  0.000000  1    0.201826798408E-03                              
AS R24  2019 01 08 00 01  0.000000  1   -0.175790622180E-03                              
AR PIE1 2019 01 08 00 01 30.000000  1   -0.434274961035E-03                              
AS G01  2019 01 08 00 01 30.000000  1   -0.141649359946E-03                              
AS G02  2019 01 08 00 01 30.000000  1   -0.107146522203E-03                              
AS G03  2019 01 08 00 01 30.000000  1    0.175667704019E-03                              
AS G05  2019 01 08 00 01 30.000000  1    0.724486207765E-06                              
AS G06  2019 01 08 00 01 30.000000  1    0.301294861003E-03                              
AS G07  2019 01 08 00 01 30.000000  1    0.558637596553E-04                              
AS G08  2019 01 08 00 01 30.000000  1   -0.128289847194E-03                              
AS G09  2019 01 08 00 01 30.000000  1    0.474386036100E-03                              
AS G10  2019 01 08 00 01 30.000000  1    0.139325734591E-03                              
AS G11  2019 01 08 00 01 30.000000  1   -0.678387098325E-03                              
AS G12  2019 01 08 00 01 30.000000  1    0.278172182084E-03                              
AS G13  2019 01 08 00 01 30.000000  1   -0.790615112079E-04                              
AS G14  2019 01 08 00 01 30.000000  1   -0.935018853079E-04                              
AS G15  2019 01 08 00 01 30.000000  1   -0.333152442010E-03                              
AS G16  2019 01 08 00 01 30.000000  1   -0.113669530285E-04                              
AS G17  2019 01 08 00 01 30.000000  1   -0.783606848281E-05                              
AS G18  2019 01 08 00 01 30.000000  1    0.135566594920E-04                              
AS G19  2019 01 08 00 01 30.000000  1   -0.365695374834E-03                              
AS G20  2019 01 08 00 01 30.000000  1    0.520874481925E-03                              
AS G21  2019 01 08 00 01 30.000000  1   -0.273169348949E-03                              
AS G22  2019 01 08 00 01 30.000000  1   -0.617566629968E-03                              
AS G23  2019 01 08 00 01 30.000000  1   -0.201206925780E-03                              
AS G24  2019 01 08 00 01 30.000000  1   -0.604959169869E-04                              
AS G25  2019 01 08 00 01 30.000000  1   -0.702697306469E-03                              
AS G26  2019 01 08 00 01 30.000000  1    0.901361784856E-04                              
AS G27  2019 01 08 00 01 30.000000  1   -0.452072744431E-04                              
AS G28  2019 01 08 00 01 30.000000  1    0.761231524041E-03                              
AS G29  2019 01 08 00 01 30.000000  1    0.298236559890E-03                              
AS G30  2019 01 08 00 01 30.000000  1   -0.323014599760E-04                              
AS G31  2019 01 08 00 01 30.000000  1    0.673348879173E-04                              
AS G32  2019 01 08 00 01 30.000000  1   -0.284745616206E-03                              
AS R01  2019 01 08 00 01 30.000000  1    0.376028987937E-04                              
AS R02  2019 01 08 00 01 30.000000  1    0.348300745178E-03                              
AS R03  2019 01 08 00 01 30.000000  1    0.153896642032E-03                              
AS R04  2019 01 08 00 01 30.000000  1    0.290463889058E-03                              
AS R05  2019 01 08 00 01 30.000000  1    0.194645187629E-04                              
AS R07  2019 01 08 00 01 30.000000  1   -0.553884179514E-04                              
AS R08  2019 01 08 00 01 30.000000  1    0.196698997039E-04                              
AS R09  2019 01 08 00 01 30.000000  1    0.478373970506E-04                              
AS R10  2019 01 08 00 01 30.000000  1    0.391709678221E-04                              
AS R11  2019 01 08 00 01 30.000000  1   -0.527851898869E-04                              
AS R13  2019 01 08 00 01 30.000000  1   -0.187596020397E-04                              
AS R14  2019 01 08 00 01 30.000000  1    0.347177236165E-04                              
AS R15  2019 01 08 00 01 30.000000  1    0.991997155007E-04                              
AS R17  2019 01 08 00 01 30.000000  1    0.194352302616E-03                              
AS R18  2019 01 08 00 01 30.000000  1    0.294498218883E-04                              
AS R19  2019 01 08 00 01 30.000000  1   -0.623107109654E-04                              
AS R20  2019 01 08 00 01 30.000000  1   -0.364887332187E-03                              
AS R21  2019 01 08 00 01 30.000000  1   -0.243174284491E-04                              
AS R22  2019 01 08 00 01 30.000000  1   -0.643256556203E-04                              
AS R23  2019 01 08 00 01 30.000000  1    0.201826794388E-03                              
AS R24  2019 01 08 00 01 30.000000  1   -0.175790709216E-03                              
AR PIE1 2019 01 08 00 02  0.000000  1   -0.434274975954E-03                              
AS G01  2019 01 08 00 02  0.000000  1   -0.141649540706E-03                              
AS G02  2019 01 08 00 02  0.000000  1   -0.107146753493E-03                              
AS G03  2019 01 08 00 02  0.000000  1    0.175667780011E-03                              
AS G05  2019 01 08 00 02  0.000000  1    0.724513884343E-06                              
AS G06  2019 01 08 00 02  0.000000  1    0.301294632752E-03                              
AS G07  2019 01 08 00 02  0.000000  1    0.558636185587E-04                              
AS G08  2019 01 08 00 02  0.000000  1   -0.128289973187E-03                              
AS G09  2019 01 08 00 02  0.000000  1    0.474385901601E-03                              
AS G10  2019 01 08 00 02  0.000000  1    0.139325541646E-03                              
AS G11  2019 01 08 00 02  0.000000  1   -0.678386909687E-03                              
AS G12  2019 01 08 00 02  0.000000  1    0.278172120288E-03                              
AS G13  2019 01 08 00 02  0.000000  1   -0.790614411421E-04                              
AS G14  2019 01 08 00 02  0.000000  1   -0.935018322786E-04                              
AS G15  2019 01 08 00 02  0.000000  1   -0.333152493201E-03                              
AS G16  2019 01 08 00 02  0.000000  1   -0.113669979869E-04                              
AS G17  2019 01 08 00 02  0.000000  1   -0.783592195676E-05                              
AS G18  2019 01 08 00 02  0.000000  1    0.135568286132E-04                              
AS G19  2019 01 08 00 02  0.000000  1   -0.365695344851E-03                              
AS G20  2019 01 08 00 02  0.000000  1    0.520874532109E-03                              
AS G21  2019 01 08 00 02  0.000000  1   -0.273169132088E-03                              
AS G22  2019 01 08 00 02  0.000000  1   -0.617566955809E-03                              
AS G23  2019 01 08 00 02  0.000000  1   -0.201206952029E-03                              
AS G24  2019 01 08 00 02  0.000000  1   -0.604958963983E-04                              
AS G25  2019 01 08 00 02  0.000000  1   -0.702697479009E-03                              
AS G26  2019 01 08 00 02  0.000000  1    0.901365054567E-04                              
AS G27  2019 01 08 00 02  0.000000  1   -0.452074613776E-04                              
AS G28  2019 01 08 00 02  0.000000  1    0.761231526457E-03                              
AS G29  2019 01 08 00 02  0.000000  1    0.298236270075E-03                              
AS G30  2019 01 08 00 02  0.000000  1   -0.323016454235E-04                              
AS G31  2019 01 08 00 02  0.000000  1    0.673348744746E-04                              
AS G32  2019 01 08 00 02  0.000000  1   -0.284745114520E-03                              
AS R01  2019 01 08 00 02  0.000000  1    0.376028667624E-04                              
AS R02  2019 01 08 00 02  0.000000  1    0.348300878118E-03                              
AS R03  2019 01 08 00 02  0.000000  1    0.153896588736E-03                              
AS R04  2019 01 08 00 02  0.000000  1    0.290464037308E-03                              
AS R05  2019 01 08 00 02  0.000000  1    0.194646364274E-04                              
AS R07  2019 01 08 00 02  0.000000  1   -0.553884048367E-04                              
AS R08  2019 01 08 00 02  0.000000  1    0.196700131601E-04                              
AS R09  2019 01 08 00 02  0.000000  1    0.478374672195E-04                              
AS R10  2019 01 08 00 02  0.000000  1    0.391708653726E-04                              
AS R11  2019 01 08 00 02  0.000000  1   -0.527852861261E-04                              
AS R13  2019 01 08 00 02  0.000000  1   -0.187596214340E-04                              
AS R14  2019 01 08 00 02  0.000000  1    0.347177712729E-04                              
AS R15  2019 01 08 00 02  0.000000  1    0.991997191063E-04                              
AS R17  2019 01 08 00 02  0.000000  1    0.194352387717E-03                              
AS R18  2019 01 08 00 02  0.000000  1    0.294497940186E-04                              
AS R19  2019 01 08 00 02  0.000000  1   -0.623106881768E-04                              
AS R20  2019 01 08 00 02  0.000000  1   -0.364887458963E-03                              
AS R21  2019 01 08 00 02  0.000000  1   -0.243175702770E-04                              
AS R22  2019 01 08 00 02  0.000000  1   -0.643256699362E-04                              
AS R23  2019 01 08 00 02  0.000000  1    0.201826787436E-03                              
AS R24  2019 01 08 00 02  0.000000  1   -0.175790606901E-03                              
AR PIE1 2019 01 08 00 02 30.000000  1   -0.434274990872E-03                              
AS G01  2019 01 08 00 02 30.000000  1   -0.141649733998E-03                              
AS G02  2019 01 08 00 02 30.000000  1   -0.107147082029E-03                              
AS G03  2019 01 08 00 02 30.000000  1    0.175667860477E-03                              
AS G05  2019 01 08 00 02 30.000000  1    0.724445475641E-06                              
AS G06  2019 01 08 00 02 30.000000  1    0.301294418997E-03                              
AS G07  2019 01 08 00 02 30.000000  1    0.558633428626E-04                              
AS G08  2019 01 08 00 02 30.000000  1   -0.128290096886E-03                              
AS G09  2019 01 08 00 02 30.000000  1    0.474385771315E-03                              
AS G10  2019 01 08 00 02 30.000000  1    0.139325361572E-03                              
AS G11  2019 01 08 00 02 30.000000  1   -0.678386738673E-03                              
AS G12  2019 01 08 00 02 30.000000  1    0.278171992865E-03                              
AS G13  2019 01 08 00 02 30.000000  1   -0.790613486035E-04                              
AS G14  2019 01 08 00 02 30.000000  1   -0.935017105094E-04                              
AS G15  2019 01 08 00 02 30.000000  1   -0.333152518457E-03                              
AS G16  2019 01 08 00 02 30.000000  1   -0.113670316347E-04                              
AS G17  2019 01 08 00 02 30.000000  1   -0.783570704028E-05                              
AS G18  2019 01 08 00 02 30.000000  1    0.135569786942E-04                              
AS G19  2019 01 08 00 02 30.000000  1   -0.365695169724E-03                              
AS G20  2019 01 08 00 02 30.000000  1    0.520874593412E-03                              
AS G21  2019 01 08 00 02 30.000000  1   -0.273169015494E-03                              
AS G22  2019 01 08 00 02 30.000000  1   -0.617567204731E-03                              
AS G23  2019 01 08 00 02 30.000000  1   -0.201206886993E-03                              
AS G24  2019 01 08 00 02 30.000000  1   -0.604959414429E-04                              
AS G25  2019 01 08 00 02 30.000000  1   -0.702697643277E-03                              
AS G26  2019 01 08 00 02 30.000000  1    0.901368338558E-04                              
AS G27  2019 01 08 00 02 30.000000  1   -0.452076525709E-04                              
AS G28  2019 01 08 00 02 30.000000  1    0.761231510667E-03                              
AS G29  2019 01 08 00 02 30.000000  1    0.298236177131E-03                              
AS G30  2019 01 08 00 02 30.000000  1   -0.323018319556E-04                              
AS G31  2019 01 08 00 02 30.000000  1    0.673348804358E-04                              
AS G32  2019 01 08 00 02 30.000000  1   -0.284744608721E-03                              
AS R01  2019 01 08 00 02 30.000000  1    0.376028787886E-04                              
AS R02  2019 01 08 00 02 30.000000  1    0.348300908283E-03                              
AS R03  2019 01 08 00 02 30.000000  1    0.153896518627E-03                              
AS R04  2019 01 08 00 02 30.000000  1    0.290464111888E-03                              
AS R05  2019 01 08 00 02 30.000000  1    0.194646182636E-04                              
AS R07  2019 01 08 00 02 30.000000  1   -0.553884972105E-04                              
AS R08  2019 01 08 00 02 30.000000  1    0.196700717097E-04                              
AS R09  2019 01 08 00 02 30.000000  1    0.478375302686E-04                              
AS R10  2019 01 08 00 02 30.000000  1    0.391709273510E-04                              
AS R11  2019 01 08 00 02 30.000000  1   -0.527853494020E-04                              
AS R13  2019 01 08 00 02 30.000000  1   -0.187596765830E-04                              
AS R14  2019 01 08 00 02 30.000000  1    0.347177904438E-04                              
AS R15  2019 01 08 00 02 30.000000  1    0.991997504041E-04                              
AS R17  2019 01 08 00 02 30.000000  1    0.194352494570E-03                              
AS R18  2019 01 08 00 02 30.000000  1    0.294498302428E-04                              
AS R19  2019 01 08 00 02 30.000000  1   -0.623109367189E-04                              
AS R20  2019 01 08 00 02 30.000000  1   -0.364887437553E-03                              
AS R21  2019 01 08 00 02 30.000000  1   -0.243176490245E-04                              
AS R22  2019 01 08 00 02 30.000000  1   -0.643257309949E-04                              
AS R23  2019 01 08 00 02 30.000000  1    0.201826907645E-03                              
AS R24  2019 01 08 00 02 30.000000  1   -0.175790584498E-03                              
AR PIE1 2019 01 08 00 03  0.000000  1   -0.434275005791E-03                              
AS G01  2019 01 08 00 03  0.000000  1   -0.141649924225E-03                              
AS G02  2019 01 08 00 03  0.000000  1   -0.107147369702E-03                              
AS G03  2019 01 08 00 03  0.000000  1    0.175667950922E-03                              
AS G05  2019 01 08 00 03  0.000000  1    0.724494053784E-06                              
AS G06  2019 01 08 00 03  0.000000  1    0.301294191947E-03                              
AS G07  2019 01 08 00 03  0.000000  1    0.558631378616E-04                              
AS G08  2019 01 08 00 03  0.000000  1   -0.128290065992E-03                              
AS G09  2019 01 08 00 03  0.000000  1    0.474385634407E-03                              
AS G10  2019 01 08 00 03  0.000000  1    0.139325183562E-03                              
AS G11  2019 01 08 00 03  0.000000  1   -0.678386600807E-03                              
AS G12  2019 01 08 00 03  0.000000  1    0.278171931039E-03                              
AS G13  2019 01 08 00 03  0.000000  1   -0.790613722126E-04                              
AS G14  2019 01 08 00 03  0.000000  1   -0.935016848029E-04                              
AS G15  2019 01 08 00 03  0.000000  1   -0.333152404529E-03                              
AS G16  2019 01 08 00 03  0.000000  1   -0.113671974473E-04                              
AS G17  2019 01 08 00 03  0.000000  1   -0.783553641939E-05                              
AS G18  2019 01 08 00 03  0.000000  1    0.135570844932E-04                              
AS G19  2019 01 08 00 03  0.000000  1   -0.365694969517E-03                              
AS G20  2019 01 08 00 03  0.000000  1    0.520874533122E-03                              
AS G21  2019 01 08 00 03  0.000000  1   -0.273168764227E-03                              
AS G22  2019 01 08 00 03  0.000000  1   -0.617567469313E-03                              
AS G23  2019 01 08 00 03  0.000000  1   -0.201206774218E-03                              
AS G24  2019 01 08 00 03  0.000000  1   -0.604958424394E-04                              
AS G25  2019 01 08 00 03  0.000000  1   -0.702697809077E-03                              
AS G26  2019 01 08 00 03  0.000000  1    0.901371501107E-04                              
AS G27  2019 01 08 00 03  0.000000  1   -0.452078416385E-04                              
AS G28  2019 01 08 00 03  0.000000  1    0.761231499455E-03                              
AS G29  2019 01 08 00 03  0.000000  1    0.298235936339E-03                              
AS G30  2019 01 08 00 03  0.000000  1   -0.323020106044E-04                              
AS G31  2019 01 08 00 03  0.000000  1    0.673349164679E-04                              
AS G32  2019 01 08 00 03  0.000000  1   -0.284744104533E-03                              
AS R01  2019 01 08 00 03  0.000000  1    0.376028854322E-04                              
AS R02  2019 01 08 00 03  0.000000  1    0.348301091946E-03                              
AS R03  2019 01 08 00 03  0.000000  1    0.153896327232E-03                              
AS R04  2019 01 08 00 03  0.000000  1    0.290464251676E-03                              
AS R05  2019 01 08 00 03  0.000000  1    0.194646022236E-04                              
AS R07  2019 01 08 00 03  0.000000  1   -0.553886568450E-04                              
AS R08  2019 01 08 00 03  0.000000  1    0.196699599233E-04                              
AS R09  2019 01 08 00 03  0.000000  1    0.478376426006E-04                              
AS R10  2019 01 08 00 03  0.000000  1    0.391708515569E-04                              
AS R11  2019 01 08 00 03  0.000000  1   -0.527854179342E-04                              
AS R13  2019 01 08 00 03  0.000000  1   -0.187596831967E-04                              
AS R14  2019 01 08 00 03  0.000000  1    0.347177981383E-04                              
AS R15  2019 01 08 00 03  0.000000  1    0.991997595880E-04                              
AS R17  2019 01 08 00 03  0.000000  1    0.194352577297E-03                              
AS R18  2019 01 08 00 03  0.000000  1    0.294498674077E-04                              
AS R19  2019 01 08 00 03  0.000000  1   -0.623110964429E-04                              
AS R20  2019 01 08 00 03  0.000000  1   -0.364887473357E-03                              
AS R21  2019 01 08 00 03  0.000000  1   -0.243176769102E-04                              
AS R22  2019 01 08 00 03  0.000000  1   -0.643257526790E-04                              
AS R23  2019 01 08 00 03  0.000000  1    0.201827068203E-03                              
AS R24  2019 01 08 00 03  0.000000  1   -0.175790619386E-03                              
AR PIE1 2019 01 08 00 03 30.000000  1   -0.434275020709E-03                              
AS G01  2019 01 08 00 03 30.000000  1   -0.141650114518E-03                              
AS G02  2019 01 08 00 03 30.000000  1   -0.107147665047E-03                              
AS G03  2019 01 08 00 03 30.000000  1    0.175668026816E-03                              
AS G05  2019 01 08 00 03 30.000000  1    0.724642539684E-06                              
AS G06  2019 01 08 00 03 30.000000  1    0.301293963645E-03                              
AS G07  2019 01 08 00 03 30.000000  1    0.558629094885E-04                              
AS G08  2019 01 08 00 03 30.000000  1   -0.128289908498E-03                              
AS G09  2019 01 08 00 03 30.000000  1    0.474385504791E-03                              
AS G10  2019 01 08 00 03 30.000000  1    0.139324987624E-03                              
AS G11  2019 01 08 00 03 30.000000  1   -0.678386506024E-03                              
AS G12  2019 01 08 00 03 30.000000  1    0.278171704999E-03                              
AS G13  2019 01 08 00 03 30.000000  1   -0.790613859045E-04                              
AS G14  2019 01 08 00 03 30.000000  1   -0.935016863395E-04                              
AS G15  2019 01 08 00 03 30.000000  1   -0.333152355547E-03                              
AS G16  2019 01 08 00 03 30.000000  1   -0.113672434826E-04                              
AS G17  2019 01 08 00 03 30.000000  1   -0.783538503160E-05                              
AS G18  2019 01 08 00 03 30.000000  1    0.135572037799E-04                              
AS G19  2019 01 08 00 03 30.000000  1   -0.365694899672E-03                              
AS G20  2019 01 08 00 03 30.000000  1    0.520874460962E-03                              
AS G21  2019 01 08 00 03 30.000000  1   -0.273168649266E-03                              
AS G22  2019 01 08 00 03 30.000000  1   -0.617567637229E-03                              
AS G23  2019 01 08 00 03 30.000000  1   -0.201206862697E-03                              
AS G24  2019 01 08 00 03 30.000000  1   -0.604957391792E-04                              
AS G25  2019 01 08 00 03 30.000000  1   -0.702697973850E-03                              
AS G26  2019 01 08 00 03 30.000000  1    0.901374709606E-04                              
AS G27  2019 01 08 00 03 30.000000  1   -0.452080372084E-04                              
AS G28  2019 01 08 00 03 30.000000  1    0.761231561239E-03                              
AS G29  2019 01 08 00 03 30.000000  1    0.298235620800E-03                              
AS G30  2019 01 08 00 03 30.000000  1   -0.323021953092E-04                              
AS G31  2019 01 08 00 03 30.000000  1    0.673347937991E-04                              
AS G32  2019 01 08 00 03 30.000000  1   -0.284743601460E-03                              
AS R01  2019 01 08 00 03 30.000000  1    0.376028780359E-04                              
AS R02  2019 01 08 00 03 30.000000  1    0.348301176558E-03                              
AS R03  2019 01 08 00 03 30.000000  1    0.153896197016E-03                              
AS R04  2019 01 08 00 03 30.000000  1    0.290464338049E-03                              
AS R05  2019 01 08 00 03 30.000000  1    0.194646278129E-04                              
AS R07  2019 01 08 00 03 30.000000  1   -0.553886398567E-04                              
AS R08  2019 01 08 00 03 30.000000  1    0.196697831792E-04                              
AS R09  2019 01 08 00 03 30.000000  1    0.478376849393E-04                              
AS R10  2019 01 08 00 03 30.000000  1    0.391706625209E-04                              
AS R11  2019 01 08 00 03 30.000000  1   -0.527854559399E-04                              
AS R13  2019 01 08 00 03 30.000000  1   -0.187598059159E-04                              
AS R14  2019 01 08 00 03 30.000000  1    0.347177843035E-04                              
AS R15  2019 01 08 00 03 30.000000  1    0.991997212292E-04                              
AS R17  2019 01 08 00 03 30.000000  1    0.194352604496E-03                              
AS R18  2019 01 08 00 03 30.000000  1    0.294498837947E-04                              
AS R19  2019 01 08 00 03 30.000000  1   -0.623108738655E-04                              
AS R20  2019 01 08 00 03 30.000000  1   -0.364887538519E-03                              
AS R21  2019 01 08 00 03 30.000000  1   -0.243177259494E-04                              
AS R22  2019 01 08 00 03 30.000000  1   -0.643257478819E-04                              
AS R23  2019 01 08 00 03 30.000000  1    0.201827159766E-03                              
AS R24  2019 01 08 00 03 30.000000  1   -0.175790604194E-03                              
AR PIE1 2019 01 08 00 04  0.000000  1   -0.434275035628E-03                              
AS R18  2019 01 08 10 00  0.000000  2    0.294804625338E-04  0.835484069663E-11          
AS R19  2019 01 08 10 00  0.000000  2   -0.623055103621E-04  0.818945867155E-11          
AS R20  2019 01 08 10 00  0.000000  2   -0.364931804006E-03  0.820492313750E-11          
AS R21  2019 01 08 10 00  0.000000  2   -0.243934947986E-04  0.846286338370E-11          
AS R22  2019 01 08 10 00  0.000000  2   -0.643217640876E-04  0.879223807470E-11          
AS R23  2019 01 08 10 00  0.000000  2    0.201910775949E-03  0.879964071011E-11          
AS R24  2019 01 08 10 00  0.000000  2   -0.175808940568E-03  0.888106389278E-11          
